{
  "contractName": "TheNumber8Club",
  "abi": [
    {
      "inputs": [
        {
          "internalType": "string",
          "name": "baseURI",
          "type": "string"
        }
      ],
      "stateMutability": "nonpayable",
      "type": "constructor"
    },
    {
      "anonymous": false,
      "inputs": [
        {
          "indexed": true,
          "internalType": "address",
          "name": "owner",
          "type": "address"
        },
        {
          "indexed": true,
          "internalType": "address",
          "name": "approved",
          "type": "address"
        },
        {
          "indexed": true,
          "internalType": "uint256",
          "name": "tokenId",
          "type": "uint256"
        }
      ],
      "name": "Approval",
      "type": "event"
    },
    {
      "anonymous": false,
      "inputs": [
        {
          "indexed": true,
          "internalType": "address",
          "name": "owner",
          "type": "address"
        },
        {
          "indexed": true,
          "internalType": "address",
          "name": "operator",
          "type": "address"
        },
        {
          "indexed": false,
          "internalType": "bool",
          "name": "approved",
          "type": "bool"
        }
      ],
      "name": "ApprovalForAll",
      "type": "event"
    },
    {
      "anonymous": false,
      "inputs": [
        {
          "indexed": true,
          "internalType": "uint256",
          "name": "id",
          "type": "uint256"
        }
      ],
      "name": "CreateTheNumber8Club",
      "type": "event"
    },
    {
      "anonymous": false,
      "inputs": [
        {
          "indexed": true,
          "internalType": "address",
          "name": "previousOwner",
          "type": "address"
        },
        {
          "indexed": true,
          "internalType": "address",
          "name": "newOwner",
          "type": "address"
        }
      ],
      "name": "OwnershipTransferred",
      "type": "event"
    },
    {
      "anonymous": false,
      "inputs": [
        {
          "indexed": true,
          "internalType": "address",
          "name": "from",
          "type": "address"
        },
        {
          "indexed": true,
          "internalType": "address",
          "name": "to",
          "type": "address"
        },
        {
          "indexed": true,
          "internalType": "uint256",
          "name": "tokenId",
          "type": "uint256"
        }
      ],
      "name": "Transfer",
      "type": "event"
    },
    {
      "inputs": [],
      "name": "MAX_BY_MINT",
      "outputs": [
        {
          "internalType": "uint256",
          "name": "",
          "type": "uint256"
        }
      ],
      "stateMutability": "view",
      "type": "function"
    },
    {
      "inputs": [],
      "name": "MAX_ELEMENTS",
      "outputs": [
        {
          "internalType": "uint256",
          "name": "",
          "type": "uint256"
        }
      ],
      "stateMutability": "view",
      "type": "function"
    },
    {
      "inputs": [],
      "name": "MAX_RESERVE_COUNT",
      "outputs": [
        {
          "internalType": "uint256",
          "name": "",
          "type": "uint256"
        }
      ],
      "stateMutability": "view",
      "type": "function"
    },
    {
      "inputs": [],
      "name": "MAX_WALLET",
      "outputs": [
        {
          "internalType": "uint256",
          "name": "",
          "type": "uint256"
        }
      ],
      "stateMutability": "view",
      "type": "function"
    },
    {
      "inputs": [],
      "name": "PRICE",
      "outputs": [
        {
          "internalType": "uint256",
          "name": "",
          "type": "uint256"
        }
      ],
      "stateMutability": "view",
      "type": "function"
    },
    {
      "inputs": [],
      "name": "SALE_START",
      "outputs": [
        {
          "internalType": "uint256",
          "name": "",
          "type": "uint256"
        }
      ],
      "stateMutability": "view",
      "type": "function"
    },
    {
      "inputs": [
        {
          "internalType": "address",
          "name": "to",
          "type": "address"
        },
        {
          "internalType": "uint256",
          "name": "tokenId",
          "type": "uint256"
        }
      ],
      "name": "approve",
      "outputs": [],
      "stateMutability": "nonpayable",
      "type": "function"
    },
    {
      "inputs": [
        {
          "internalType": "address",
          "name": "owner",
          "type": "address"
        }
      ],
      "name": "balanceOf",
      "outputs": [
        {
          "internalType": "uint256",
          "name": "",
          "type": "uint256"
        }
      ],
      "stateMutability": "view",
      "type": "function"
    },
    {
      "inputs": [],
      "name": "baseTokenURI",
      "outputs": [
        {
          "internalType": "string",
          "name": "",
          "type": "string"
        }
      ],
      "stateMutability": "view",
      "type": "function"
    },
    {
      "inputs": [
        {
          "internalType": "uint256",
          "name": "tokenId",
          "type": "uint256"
        }
      ],
      "name": "getApproved",
      "outputs": [
        {
          "internalType": "address",
          "name": "",
          "type": "address"
        }
      ],
      "stateMutability": "view",
      "type": "function"
    },
    {
      "inputs": [
        {
          "internalType": "address",
          "name": "owner",
          "type": "address"
        },
        {
          "internalType": "address",
          "name": "operator",
          "type": "address"
        }
      ],
      "name": "isApprovedForAll",
      "outputs": [
        {
          "internalType": "bool",
          "name": "",
          "type": "bool"
        }
      ],
      "stateMutability": "view",
      "type": "function"
    },
    {
      "inputs": [],
      "name": "isPaused",
      "outputs": [
        {
          "internalType": "bool",
          "name": "",
          "type": "bool"
        }
      ],
      "stateMutability": "view",
      "type": "function"
    },
    {
      "inputs": [],
      "name": "name",
      "outputs": [
        {
          "internalType": "string",
          "name": "",
          "type": "string"
        }
      ],
      "stateMutability": "view",
      "type": "function"
    },
    {
      "inputs": [],
      "name": "owner",
      "outputs": [
        {
          "internalType": "address",
          "name": "",
          "type": "address"
        }
      ],
      "stateMutability": "view",
      "type": "function"
    },
    {
      "inputs": [
        {
          "internalType": "uint256",
          "name": "tokenId",
          "type": "uint256"
        }
      ],
      "name": "ownerOf",
      "outputs": [
        {
          "internalType": "address",
          "name": "",
          "type": "address"
        }
      ],
      "stateMutability": "view",
      "type": "function"
    },
    {
      "inputs": [],
      "name": "renounceOwnership",
      "outputs": [],
      "stateMutability": "nonpayable",
      "type": "function"
    },
    {
      "inputs": [
        {
          "internalType": "address",
          "name": "from",
          "type": "address"
        },
        {
          "internalType": "address",
          "name": "to",
          "type": "address"
        },
        {
          "internalType": "uint256",
          "name": "tokenId",
          "type": "uint256"
        }
      ],
      "name": "safeTransferFrom",
      "outputs": [],
      "stateMutability": "nonpayable",
      "type": "function"
    },
    {
      "inputs": [
        {
          "internalType": "address",
          "name": "from",
          "type": "address"
        },
        {
          "internalType": "address",
          "name": "to",
          "type": "address"
        },
        {
          "internalType": "uint256",
          "name": "tokenId",
          "type": "uint256"
        },
        {
          "internalType": "bytes",
          "name": "_data",
          "type": "bytes"
        }
      ],
      "name": "safeTransferFrom",
      "outputs": [],
      "stateMutability": "nonpayable",
      "type": "function"
    },
    {
      "inputs": [
        {
          "internalType": "address",
          "name": "operator",
          "type": "address"
        },
        {
          "internalType": "bool",
          "name": "approved",
          "type": "bool"
        }
      ],
      "name": "setApprovalForAll",
      "outputs": [],
      "stateMutability": "nonpayable",
      "type": "function"
    },
    {
      "inputs": [
        {
          "internalType": "bytes4",
          "name": "interfaceId",
          "type": "bytes4"
        }
      ],
      "name": "supportsInterface",
      "outputs": [
        {
          "internalType": "bool",
          "name": "",
          "type": "bool"
        }
      ],
      "stateMutability": "view",
      "type": "function"
    },
    {
      "inputs": [],
      "name": "symbol",
      "outputs": [
        {
          "internalType": "string",
          "name": "",
          "type": "string"
        }
      ],
      "stateMutability": "view",
      "type": "function"
    },
    {
      "inputs": [
        {
          "internalType": "uint256",
          "name": "index",
          "type": "uint256"
        }
      ],
      "name": "tokenByIndex",
      "outputs": [
        {
          "internalType": "uint256",
          "name": "",
          "type": "uint256"
        }
      ],
      "stateMutability": "view",
      "type": "function"
    },
    {
      "inputs": [
        {
          "internalType": "address",
          "name": "owner",
          "type": "address"
        },
        {
          "internalType": "uint256",
          "name": "index",
          "type": "uint256"
        }
      ],
      "name": "tokenOfOwnerByIndex",
      "outputs": [
        {
          "internalType": "uint256",
          "name": "",
          "type": "uint256"
        }
      ],
      "stateMutability": "view",
      "type": "function"
    },
    {
      "inputs": [],
      "name": "totalSupply",
      "outputs": [
        {
          "internalType": "uint256",
          "name": "",
          "type": "uint256"
        }
      ],
      "stateMutability": "view",
      "type": "function"
    },
    {
      "inputs": [
        {
          "internalType": "address",
          "name": "from",
          "type": "address"
        },
        {
          "internalType": "address",
          "name": "to",
          "type": "address"
        },
        {
          "internalType": "uint256",
          "name": "tokenId",
          "type": "uint256"
        }
      ],
      "name": "transferFrom",
      "outputs": [],
      "stateMutability": "nonpayable",
      "type": "function"
    },
    {
      "inputs": [
        {
          "internalType": "address",
          "name": "newOwner",
          "type": "address"
        }
      ],
      "name": "transferOwnership",
      "outputs": [],
      "stateMutability": "nonpayable",
      "type": "function"
    },
    {
      "inputs": [],
      "name": "totalMint",
      "outputs": [
        {
          "internalType": "uint256",
          "name": "",
          "type": "uint256"
        }
      ],
      "stateMutability": "view",
      "type": "function"
    },
    {
      "inputs": [],
      "name": "reserveTokens",
      "outputs": [],
      "stateMutability": "nonpayable",
      "type": "function"
    },
    {
      "inputs": [
        {
          "internalType": "uint256",
          "name": "_count",
          "type": "uint256"
        }
      ],
      "name": "mint",
      "outputs": [],
      "stateMutability": "payable",
      "type": "function"
    },
    {
      "inputs": [
        {
          "internalType": "address[]",
          "name": "winners",
          "type": "address[]"
        }
      ],
      "name": "airdropNFT",
      "outputs": [],
      "stateMutability": "nonpayable",
      "type": "function"
    },
    {
      "inputs": [
        {
          "internalType": "uint256",
          "name": "_count",
          "type": "uint256"
        }
      ],
      "name": "salePrice",
      "outputs": [
        {
          "internalType": "uint256",
          "name": "",
          "type": "uint256"
        }
      ],
      "stateMutability": "view",
      "type": "function"
    },
    {
      "inputs": [
        {
          "internalType": "string",
          "name": "baseURI",
          "type": "string"
        }
      ],
      "name": "setBaseURI",
      "outputs": [],
      "stateMutability": "nonpayable",
      "type": "function"
    },
    {
      "inputs": [
        {
          "internalType": "uint256",
          "name": "tokenId",
          "type": "uint256"
        }
      ],
      "name": "tokenURI",
      "outputs": [
        {
          "internalType": "string",
          "name": "",
          "type": "string"
        }
      ],
      "stateMutability": "view",
      "type": "function"
    },
    {
      "inputs": [
        {
          "internalType": "address",
          "name": "_owner",
          "type": "address"
        }
      ],
      "name": "walletOfOwner",
      "outputs": [
        {
          "internalType": "uint256[]",
          "name": "",
          "type": "uint256[]"
        }
      ],
      "stateMutability": "view",
      "type": "function"
    },
    {
      "inputs": [],
      "name": "pauseMinting",
      "outputs": [],
      "stateMutability": "nonpayable",
      "type": "function"
    },
    {
      "inputs": [],
      "name": "resumeMinting",
      "outputs": [],
      "stateMutability": "nonpayable",
      "type": "function"
    },
    {
      "inputs": [
        {
          "internalType": "uint256",
          "name": "_price",
          "type": "uint256"
        }
      ],
      "name": "setSalePrice",
      "outputs": [],
      "stateMutability": "nonpayable",
      "type": "function"
    },
    {
      "inputs": [
        {
          "internalType": "uint256",
          "name": "_count",
          "type": "uint256"
        }
      ],
      "name": "setReserveAtATime",
      "outputs": [],
      "stateMutability": "nonpayable",
      "type": "function"
    },
    {
      "inputs": [
        {
          "internalType": "uint256",
          "name": "_newCount",
          "type": "uint256"
        }
      ],
      "name": "setMaxReserveCount",
      "outputs": [],
      "stateMutability": "nonpayable",
      "type": "function"
    },
    {
      "inputs": [],
      "name": "withdrawAll",
      "outputs": [],
      "stateMutability": "nonpayable",
      "type": "function"
    }
  ],
  "bytecode": "0x60806040526804c53ecdc18a600000600c5561012c600d5563624e8bf0600e556000600f60006101000a81548160ff0219169083151502179055506000601055600a6011553480156200005157600080fd5b50604051620052833803806200528383398181016040528101906200007791906200056c565b6040518060400160405280600981526020017f5468652338436c756200000000000000000000000000000000000000000000008152506040518060400160405280600781526020017f4e756d62657238000000000000000000000000000000000000000000000000008152508160009080519060200190620000fb9291906200031f565b508060019080519060200190620001149291906200031f565b505050620001376200012b6200016660201b60201c565b6200016e60201b60201c565b62000148816200023460201b60201c565b6200015f600b620002df60201b62001ed21760201c565b50620006a5565b600033905090565b6000600a60009054906101000a900473ffffffffffffffffffffffffffffffffffffffff16905081600a60006101000a81548173ffffffffffffffffffffffffffffffffffffffff021916908373ffffffffffffffffffffffffffffffffffffffff1602179055508173ffffffffffffffffffffffffffffffffffffffff168173ffffffffffffffffffffffffffffffffffffffff167f8be0079c531659141344cd1fd0a4f28419497f9722a3daafe3b4186f6b6457e060405160405180910390a35050565b620002446200016660201b60201c565b73ffffffffffffffffffffffffffffffffffffffff166200026a620002f560201b60201c565b73ffffffffffffffffffffffffffffffffffffffff1614620002c3576040517f08c379a0000000000000000000000000000000000000000000000000000000008152600401620002ba906200061e565b60405180910390fd5b8060129080519060200190620002db9291906200031f565b5050565b6001816000016000828254019250508190555050565b6000600a60009054906101000a900473ffffffffffffffffffffffffffffffffffffffff16905090565b8280546200032d906200066f565b90600052602060002090601f0160209004810192826200035157600085556200039d565b82601f106200036c57805160ff19168380011785556200039d565b828001600101855582156200039d579182015b828111156200039c5782518255916020019190600101906200037f565b5b509050620003ac9190620003b0565b5090565b5b80821115620003cb576000816000905550600101620003b1565b5090565b6000604051905090565b600080fd5b600080fd5b600080fd5b600080fd5b6000601f19601f8301169050919050565b7f4e487b7100000000000000000000000000000000000000000000000000000000600052604160045260246000fd5b6200043882620003ed565b810181811067ffffffffffffffff821117156200045a5762000459620003fe565b5b80604052505050565b60006200046f620003cf565b90506200047d82826200042d565b919050565b600067ffffffffffffffff821115620004a0576200049f620003fe565b5b620004ab82620003ed565b9050602081019050919050565b60005b83811015620004d8578082015181840152602081019050620004bb565b83811115620004e8576000848401525b50505050565b600062000505620004ff8462000482565b62000463565b905082815260208101848484011115620005245762000523620003e8565b5b62000531848285620004b8565b509392505050565b600082601f830112620005515762000550620003e3565b5b815162000563848260208601620004ee565b91505092915050565b600060208284031215620005855762000584620003d9565b5b600082015167ffffffffffffffff811115620005a657620005a5620003de565b5b620005b48482850162000539565b91505092915050565b600082825260208201905092915050565b7f4f776e61626c653a2063616c6c6572206973206e6f7420746865206f776e6572600082015250565b600062000606602083620005bd565b91506200061382620005ce565b602082019050919050565b600060208201905081810360008301526200063981620005f7565b9050919050565b7f4e487b7100000000000000000000000000000000000000000000000000000000600052602260045260246000fd5b600060028204905060018216806200068857607f821691505b602082108114156200069f576200069e62000640565b5b50919050565b614bce80620006b56000396000f3fe60806040526004361061023b5760003560e01c806370a082311161012e578063b187bd26116100ab578063df7787a41161006f578063df7787a41461082c578063e985e9c514610857578063edf85f5114610894578063f2fde38b146108d1578063f6c9d9e3146108fa5761023b565b8063b187bd2614610759578063b88d4fde14610784578063c87b56dd146107ad578063d547cfb7146107ea578063da8fbf2a146108155761023b565b80638d859f3e116100f25780638d859f3e146106935780638da5cb5b146106be57806395d89b41146106e9578063a0712d6814610714578063a22cb465146107305761023b565b806370a08231146105d2578063715018a61461060f57806376500c1714610626578063853828b6146106515780638ad5de28146106685761023b565b80633502a716116101bc57806355f804b31161018057806355f804b31461050157806359a7715a1461052a57806359ae340e146105555780635bc00f411461056c5780636352211e146105955761023b565b80633502a7161461040a578063417d65511461043557806342842e0e1461045e578063438b6300146104875780634f6ccce7146104c45761023b565b80631919fed7116102035780631919fed714610339578063226730301461036257806323b872dd1461038d57806327ac36c4146103b65780632f745c59146103cd5761023b565b806301ffc9a71461024057806306fdde031461027d578063081812fc146102a8578063095ea7b3146102e557806318160ddd1461030e575b600080fd5b34801561024c57600080fd5b50610267600480360381019061026291906131b9565b610923565b6040516102749190613201565b60405180910390f35b34801561028957600080fd5b5061029261099d565b60405161029f91906132b5565b60405180910390f35b3480156102b457600080fd5b506102cf60048036038101906102ca919061330d565b610a2f565b6040516102dc919061337b565b60405180910390f35b3480156102f157600080fd5b5061030c600480360381019061030791906133c2565b610ab4565b005b34801561031a57600080fd5b50610323610bcc565b6040516103309190613411565b60405180910390f35b34801561034557600080fd5b50610360600480360381019061035b919061330d565b610bd9565b005b34801561036e57600080fd5b50610377610c5f565b6040516103849190613411565b60405180910390f35b34801561039957600080fd5b506103b460048036038101906103af919061342c565b610c65565b005b3480156103c257600080fd5b506103cb610cc5565b005b3480156103d957600080fd5b506103f460048036038101906103ef91906133c2565b610dd9565b6040516104019190613411565b60405180910390f35b34801561041657600080fd5b5061041f610e7e565b60405161042c9190613411565b60405180910390f35b34801561044157600080fd5b5061045c6004803603810190610457919061330d565b610e84565b005b34801561046a57600080fd5b506104856004803603810190610480919061342c565b610f0a565b005b34801561049357600080fd5b506104ae60048036038101906104a9919061347f565b610f2a565b6040516104bb919061356a565b60405180910390f35b3480156104d057600080fd5b506104eb60048036038101906104e6919061330d565b610fd8565b6040516104f89190613411565b60405180910390f35b34801561050d57600080fd5b50610528600480360381019061052391906136c1565b611049565b005b34801561053657600080fd5b5061053f6110df565b60405161054c9190613411565b60405180910390f35b34801561056157600080fd5b5061056a6110ee565b005b34801561057857600080fd5b50610593600480360381019061058e91906137d2565b611187565b005b3480156105a157600080fd5b506105bc60048036038101906105b7919061330d565b61128d565b6040516105c9919061337b565b60405180910390f35b3480156105de57600080fd5b506105f960048036038101906105f4919061347f565b61133f565b6040516106069190613411565b60405180910390f35b34801561061b57600080fd5b506106246113f7565b005b34801561063257600080fd5b5061063b61147f565b6040516106489190613411565b60405180910390f35b34801561065d57600080fd5b50610666611485565b005b34801561067457600080fd5b5061067d611527565b60405161068a9190613411565b60405180910390f35b34801561069f57600080fd5b506106a861152c565b6040516106b59190613411565b60405180910390f35b3480156106ca57600080fd5b506106d3611532565b6040516106e0919061337b565b60405180910390f35b3480156106f557600080fd5b506106fe61155c565b60405161070b91906132b5565b60405180910390f35b61072e6004803603810190610729919061330d565b6115ee565b005b34801561073c57600080fd5b5061075760048036038101906107529190613847565b611896565b005b34801561076557600080fd5b5061076e611a17565b60405161077b9190613201565b60405180910390f35b34801561079057600080fd5b506107ab60048036038101906107a69190613928565b611a2a565b005b3480156107b957600080fd5b506107d460048036038101906107cf919061330d565b611a8c565b6040516107e191906132b5565b60405180910390f35b3480156107f657600080fd5b506107ff611b76565b60405161080c91906132b5565b60405180910390f35b34801561082157600080fd5b5061082a611c04565b005b34801561083857600080fd5b50610841611c9d565b60405161084e9190613411565b60405180910390f35b34801561086357600080fd5b5061087e600480360381019061087991906139ab565b611ca2565b60405161088b9190613201565b60405180910390f35b3480156108a057600080fd5b506108bb60048036038101906108b6919061330d565b611d36565b6040516108c89190613411565b60405180910390f35b3480156108dd57600080fd5b506108f860048036038101906108f3919061347f565b611d54565b005b34801561090657600080fd5b50610921600480360381019061091c919061330d565b611e4c565b005b60007f780e9d63000000000000000000000000000000000000000000000000000000007bffffffffffffffffffffffffffffffffffffffffffffffffffffffff1916827bffffffffffffffffffffffffffffffffffffffffffffffffffffffff19161480610996575061099582611ee8565b5b9050919050565b6060600080546109ac90613a1a565b80601f01602080910402602001604051908101604052809291908181526020018280546109d890613a1a565b8015610a255780601f106109fa57610100808354040283529160200191610a25565b820191906000526020600020905b815481529060010190602001808311610a0857829003601f168201915b5050505050905090565b6000610a3a82611fca565b610a79576040517f08c379a0000000000000000000000000000000000000000000000000000000008152600401610a7090613abe565b60405180910390fd5b6004600083815260200190815260200160002060009054906101000a900473ffffffffffffffffffffffffffffffffffffffff169050919050565b6000610abf8261128d565b90508073ffffffffffffffffffffffffffffffffffffffff168373ffffffffffffffffffffffffffffffffffffffff161415610b30576040517f08c379a0000000000000000000000000000000000000000000000000000000008152600401610b2790613b50565b60405180910390fd5b8073ffffffffffffffffffffffffffffffffffffffff16610b4f612036565b73ffffffffffffffffffffffffffffffffffffffff161480610b7e5750610b7d81610b78612036565b611ca2565b5b610bbd576040517f08c379a0000000000000000000000000000000000000000000000000000000008152600401610bb490613be2565b60405180910390fd5b610bc7838361203e565b505050565b6000600880549050905090565b610be1612036565b73ffffffffffffffffffffffffffffffffffffffff16610bff611532565b73ffffffffffffffffffffffffffffffffffffffff1614610c55576040517f08c379a0000000000000000000000000000000000000000000000000000000008152600401610c4c90613c4e565b60405180910390fd5b80600c8190555050565b600e5481565b610c76610c70612036565b826120f7565b610cb5576040517f08c379a0000000000000000000000000000000000000000000000000000000008152600401610cac90613ce0565b60405180910390fd5b610cc08383836121d5565b505050565b610ccd612036565b73ffffffffffffffffffffffffffffffffffffffff16610ceb611532565b73ffffffffffffffffffffffffffffffffffffffff1614610d41576040517f08c379a0000000000000000000000000000000000000000000000000000000008152600401610d3890613c4e565b60405180910390fd5b600d54601154601054610d549190613d2f565b1115610d95576040517f08c379a0000000000000000000000000000000000000000000000000000000008152600401610d8c90613dd1565b60405180910390fd5b60005b601154811015610dd65760106000815480929190610db590613df1565b9190505550610dc333612431565b8080610dce90613df1565b915050610d98565b50565b6000610de48361133f565b8210610e25576040517f08c379a0000000000000000000000000000000000000000000000000000000008152600401610e1c90613eac565b60405180910390fd5b600660008473ffffffffffffffffffffffffffffffffffffffff1673ffffffffffffffffffffffffffffffffffffffff168152602001908152602001600020600083815260200190815260200160002054905092915050565b6122b881565b610e8c612036565b73ffffffffffffffffffffffffffffffffffffffff16610eaa611532565b73ffffffffffffffffffffffffffffffffffffffff1614610f00576040517f08c379a0000000000000000000000000000000000000000000000000000000008152600401610ef790613c4e565b60405180910390fd5b80600d8190555050565b610f2583838360405180602001604052806000815250611a2a565b505050565b60606000610f378361133f565b905060008167ffffffffffffffff811115610f5557610f54613596565b5b604051908082528060200260200182016040528015610f835781602001602082028036833780820191505090505b50905060005b82811015610fcd57610f9b8582610dd9565b828281518110610fae57610fad613ecc565b5b6020026020010181815250508080610fc590613df1565b915050610f89565b508092505050919050565b6000610fe2610bcc565b8210611023576040517f08c379a000000000000000000000000000000000000000000000000000000000815260040161101a90613f6d565b60405180910390fd5b6008828154811061103757611036613ecc565b5b90600052602060002001549050919050565b611051612036565b73ffffffffffffffffffffffffffffffffffffffff1661106f611532565b73ffffffffffffffffffffffffffffffffffffffff16146110c5576040517f08c379a00000000000000000000000000000000000000000000000000000000081526004016110bc90613c4e565b60405180910390fd5b80601290805190602001906110db9291906130aa565b5050565b60006110e9612482565b905090565b6110f6612036565b73ffffffffffffffffffffffffffffffffffffffff16611114611532565b73ffffffffffffffffffffffffffffffffffffffff161461116a576040517f08c379a000000000000000000000000000000000000000000000000000000000815260040161116190613c4e565b60405180910390fd5b6000600f60006101000a81548160ff021916908315150217905550565b61118f612036565b73ffffffffffffffffffffffffffffffffffffffff166111ad611532565b73ffffffffffffffffffffffffffffffffffffffff1614611203576040517f08c379a00000000000000000000000000000000000000000000000000000000081526004016111fa90613c4e565b60405180910390fd5b6000815111611247576040517f08c379a000000000000000000000000000000000000000000000000000000000815260040161123e90613fff565b60405180910390fd5b60005b81518110156112895761127682828151811061126957611268613ecc565b5b6020026020010151612431565b808061128190613df1565b91505061124a565b5050565b6000806002600084815260200190815260200160002060009054906101000a900473ffffffffffffffffffffffffffffffffffffffff169050600073ffffffffffffffffffffffffffffffffffffffff168173ffffffffffffffffffffffffffffffffffffffff161415611336576040517f08c379a000000000000000000000000000000000000000000000000000000000815260040161132d90614091565b60405180910390fd5b80915050919050565b60008073ffffffffffffffffffffffffffffffffffffffff168273ffffffffffffffffffffffffffffffffffffffff1614156113b0576040517f08c379a00000000000000000000000000000000000000000000000000000000081526004016113a790614123565b60405180910390fd5b600360008373ffffffffffffffffffffffffffffffffffffffff1673ffffffffffffffffffffffffffffffffffffffff168152602001908152602001600020549050919050565b6113ff612036565b73ffffffffffffffffffffffffffffffffffffffff1661141d611532565b73ffffffffffffffffffffffffffffffffffffffff1614611473576040517f08c379a000000000000000000000000000000000000000000000000000000000815260040161146a90613c4e565b60405180910390fd5b61147d6000612493565b565b600d5481565b61148d612036565b73ffffffffffffffffffffffffffffffffffffffff166114ab611532565b73ffffffffffffffffffffffffffffffffffffffff1614611501576040517f08c379a00000000000000000000000000000000000000000000000000000000081526004016114f890613c4e565b60405180910390fd5b60004790506000811161151357600080fd5b61152461151e611532565b82612559565b50565b600581565b600c5481565b6000600a60009054906101000a900473ffffffffffffffffffffffffffffffffffffffff16905090565b60606001805461156b90613a1a565b80601f016020809104026020016040519081016040528092919081815260200182805461159790613a1a565b80156115e45780601f106115b9576101008083540402835291602001916115e4565b820191906000526020600020905b8154815290600101906020018083116115c757829003601f168201915b5050505050905090565b6115f6611532565b73ffffffffffffffffffffffffffffffffffffffff16611614612036565b73ffffffffffffffffffffffffffffffffffffffff161461167457600e544211611673576040517f08c379a000000000000000000000000000000000000000000000000000000000815260040161166a9061418f565b60405180910390fd5b5b600061167e612482565b90506122b8828261168f9190613d2f565b11156116d0576040517f08c379a00000000000000000000000000000000000000000000000000000000081526004016116c7906141fb565b60405180910390fd5b6122b8811115611715576040517f08c379a000000000000000000000000000000000000000000000000000000000815260040161170c90614267565b60405180910390fd5b6005821115611759576040517f08c379a0000000000000000000000000000000000000000000000000000000008152600401611750906142d3565b60405180910390fd5b600f60009054906101000a900460ff16156117a9576040517f08c379a00000000000000000000000000000000000000000000000000000000081526004016117a09061433f565b60405180910390fd5b601e826117bc6117b7612036565b61133f565b6117c69190613d2f565b1115611807576040517f08c379a00000000000000000000000000000000000000000000000000000000081526004016117fe906143ab565b60405180910390fd5b61181082611d36565b341015611852576040517f08c379a000000000000000000000000000000000000000000000000000000000815260040161184990614417565b60405180910390fd5b60005b828110156118805761186d611868612036565b612431565b808061187890613df1565b915050611855565b5061189261188c611532565b47612559565b5050565b61189e612036565b73ffffffffffffffffffffffffffffffffffffffff168273ffffffffffffffffffffffffffffffffffffffff16141561190c576040517f08c379a000000000000000000000000000000000000000000000000000000000815260040161190390614483565b60405180910390fd5b8060056000611919612036565b73ffffffffffffffffffffffffffffffffffffffff1673ffffffffffffffffffffffffffffffffffffffff16815260200190815260200160002060008473ffffffffffffffffffffffffffffffffffffffff1673ffffffffffffffffffffffffffffffffffffffff16815260200190815260200160002060006101000a81548160ff0219169083151502179055508173ffffffffffffffffffffffffffffffffffffffff166119c6612036565b73ffffffffffffffffffffffffffffffffffffffff167f17307eab39ab6107e8899845ad3d59bd9653f200f220920489ca2b5937696c3183604051611a0b9190613201565b60405180910390a35050565b600f60009054906101000a900460ff1681565b611a3b611a35612036565b836120f7565b611a7a576040517f08c379a0000000000000000000000000000000000000000000000000000000008152600401611a7190613ce0565b60405180910390fd5b611a86848484846125a4565b50505050565b6060611a9782611fca565b611ad6576040517f08c379a0000000000000000000000000000000000000000000000000000000008152600401611acd90614515565b60405180910390fd5b600082905060006040518060400160405280600581526020017f2e6a736f6e00000000000000000000000000000000000000000000000000000081525090506000611b1f612600565b90506000815111611b3f5760405180602001604052806000815250611b6c565b80611b4984612692565b83604051602001611b5c93929190614571565b6040516020818303038152906040525b9350505050919050565b60128054611b8390613a1a565b80601f0160208091040260200160405190810160405280929190818152602001828054611baf90613a1a565b8015611bfc5780601f10611bd157610100808354040283529160200191611bfc565b820191906000526020600020905b815481529060010190602001808311611bdf57829003601f168201915b505050505081565b611c0c612036565b73ffffffffffffffffffffffffffffffffffffffff16611c2a611532565b73ffffffffffffffffffffffffffffffffffffffff1614611c80576040517f08c379a0000000000000000000000000000000000000000000000000000000008152600401611c7790613c4e565b60405180910390fd5b6001600f60006101000a81548160ff021916908315150217905550565b601e81565b6000600560008473ffffffffffffffffffffffffffffffffffffffff1673ffffffffffffffffffffffffffffffffffffffff16815260200190815260200160002060008373ffffffffffffffffffffffffffffffffffffffff1673ffffffffffffffffffffffffffffffffffffffff16815260200190815260200160002060009054906101000a900460ff16905092915050565b6000611d4d82600c5461281b90919063ffffffff16565b9050919050565b611d5c612036565b73ffffffffffffffffffffffffffffffffffffffff16611d7a611532565b73ffffffffffffffffffffffffffffffffffffffff1614611dd0576040517f08c379a0000000000000000000000000000000000000000000000000000000008152600401611dc790613c4e565b60405180910390fd5b600073ffffffffffffffffffffffffffffffffffffffff168173ffffffffffffffffffffffffffffffffffffffff161415611e40576040517f08c379a0000000000000000000000000000000000000000000000000000000008152600401611e3790614614565b60405180910390fd5b611e4981612493565b50565b611e54612036565b73ffffffffffffffffffffffffffffffffffffffff16611e72611532565b73ffffffffffffffffffffffffffffffffffffffff1614611ec8576040517f08c379a0000000000000000000000000000000000000000000000000000000008152600401611ebf90613c4e565b60405180910390fd5b8060118190555050565b6001816000016000828254019250508190555050565b60007f80ac58cd000000000000000000000000000000000000000000000000000000007bffffffffffffffffffffffffffffffffffffffffffffffffffffffff1916827bffffffffffffffffffffffffffffffffffffffffffffffffffffffff19161480611fb357507f5b5e139f000000000000000000000000000000000000000000000000000000007bffffffffffffffffffffffffffffffffffffffffffffffffffffffff1916827bffffffffffffffffffffffffffffffffffffffffffffffffffffffff1916145b80611fc35750611fc282612831565b5b9050919050565b60008073ffffffffffffffffffffffffffffffffffffffff166002600084815260200190815260200160002060009054906101000a900473ffffffffffffffffffffffffffffffffffffffff1673ffffffffffffffffffffffffffffffffffffffff1614159050919050565b600033905090565b816004600083815260200190815260200160002060006101000a81548173ffffffffffffffffffffffffffffffffffffffff021916908373ffffffffffffffffffffffffffffffffffffffff160217905550808273ffffffffffffffffffffffffffffffffffffffff166120b18361128d565b73ffffffffffffffffffffffffffffffffffffffff167f8c5be1e5ebec7d5bd14f71427d1e84f3dd0314c0f7b2291e5b200ac8c7c3b92560405160405180910390a45050565b600061210282611fca565b612141576040517f08c379a0000000000000000000000000000000000000000000000000000000008152600401612138906146a6565b60405180910390fd5b600061214c8361128d565b90508073ffffffffffffffffffffffffffffffffffffffff168473ffffffffffffffffffffffffffffffffffffffff1614806121bb57508373ffffffffffffffffffffffffffffffffffffffff166121a384610a2f565b73ffffffffffffffffffffffffffffffffffffffff16145b806121cc57506121cb8185611ca2565b5b91505092915050565b8273ffffffffffffffffffffffffffffffffffffffff166121f58261128d565b73ffffffffffffffffffffffffffffffffffffffff161461224b576040517f08c379a000000000000000000000000000000000000000000000000000000000815260040161224290614738565b60405180910390fd5b600073ffffffffffffffffffffffffffffffffffffffff168273ffffffffffffffffffffffffffffffffffffffff1614156122bb576040517f08c379a00000000000000000000000000000000000000000000000000000000081526004016122b2906147ca565b60405180910390fd5b6122c683838361289b565b6122d160008261203e565b6001600360008573ffffffffffffffffffffffffffffffffffffffff1673ffffffffffffffffffffffffffffffffffffffff168152602001908152602001600020600082825461232191906147ea565b925050819055506001600360008473ffffffffffffffffffffffffffffffffffffffff1673ffffffffffffffffffffffffffffffffffffffff16815260200190815260200160002060008282546123789190613d2f565b92505081905550816002600083815260200190815260200160002060006101000a81548173ffffffffffffffffffffffffffffffffffffffff021916908373ffffffffffffffffffffffffffffffffffffffff160217905550808273ffffffffffffffffffffffffffffffffffffffff168473ffffffffffffffffffffffffffffffffffffffff167fddf252ad1be2c89b69c2b068fc378daa952ba7f163c4a11628f55a4df523b3ef60405160405180910390a4505050565b600061243b612482565b9050612447600b611ed2565b61245182826129af565b807fffb20cf3659dea5f8c0f377f62f144ffd5a6815f8e64cc0ef9ef4caf59ebb50260405160405180910390a25050565b600061248e600b6129cd565b905090565b6000600a60009054906101000a900473ffffffffffffffffffffffffffffffffffffffff16905081600a60006101000a81548173ffffffffffffffffffffffffffffffffffffffff021916908373ffffffffffffffffffffffffffffffffffffffff1602179055508173ffffffffffffffffffffffffffffffffffffffff168173ffffffffffffffffffffffffffffffffffffffff167f8be0079c531659141344cd1fd0a4f28419497f9722a3daafe3b4186f6b6457e060405160405180910390a35050565b8173ffffffffffffffffffffffffffffffffffffffff166108fc829081150290604051600060405180830381858888f1935050505015801561259f573d6000803e3d6000fd5b505050565b6125af8484846121d5565b6125bb848484846129db565b6125fa576040517f08c379a00000000000000000000000000000000000000000000000000000000081526004016125f190614890565b60405180910390fd5b50505050565b60606012805461260f90613a1a565b80601f016020809104026020016040519081016040528092919081815260200182805461263b90613a1a565b80156126885780601f1061265d57610100808354040283529160200191612688565b820191906000526020600020905b81548152906001019060200180831161266b57829003601f168201915b5050505050905090565b606060008214156126da576040518060400160405280600181526020017f30000000000000000000000000000000000000000000000000000000000000008152509050612816565b600082905060005b6000821461270c5780806126f590613df1565b915050600a8261270591906148df565b91506126e2565b60008167ffffffffffffffff81111561272857612727613596565b5b6040519080825280601f01601f19166020018201604052801561275a5781602001600182028036833780820191505090505b50905060008290505b6000861461280e5760018161277891906147ea565b90506000600a808861278a91906148df565b6127949190614910565b8761279f91906147ea565b60306127ab9190614977565b905060008160f81b9050808484815181106127c9576127c8613ecc565b5b60200101907effffffffffffffffffffffffffffffffffffffffffffffffffffffffffffff1916908160001a905350600a8861280591906148df565b97505050612763565b819450505050505b919050565b600081836128299190614910565b905092915050565b60007f01ffc9a7000000000000000000000000000000000000000000000000000000007bffffffffffffffffffffffffffffffffffffffffffffffffffffffff1916827bffffffffffffffffffffffffffffffffffffffffffffffffffffffff1916149050919050565b6128a6838383612b63565b600073ffffffffffffffffffffffffffffffffffffffff168373ffffffffffffffffffffffffffffffffffffffff1614156128e9576128e481612b68565b612928565b8173ffffffffffffffffffffffffffffffffffffffff168373ffffffffffffffffffffffffffffffffffffffff1614612927576129268382612bb1565b5b5b600073ffffffffffffffffffffffffffffffffffffffff168273ffffffffffffffffffffffffffffffffffffffff16141561296b5761296681612d1e565b6129aa565b8273ffffffffffffffffffffffffffffffffffffffff168273ffffffffffffffffffffffffffffffffffffffff16146129a9576129a88282612def565b5b5b505050565b6129c9828260405180602001604052806000815250612e6e565b5050565b600081600001549050919050565b60006129fc8473ffffffffffffffffffffffffffffffffffffffff16612ec9565b15612b56578373ffffffffffffffffffffffffffffffffffffffff1663150b7a02612a25612036565b8786866040518563ffffffff1660e01b8152600401612a479493929190614a03565b6020604051808303816000875af1925050508015612a8357506040513d601f19601f82011682018060405250810190612a809190614a64565b60015b612b06573d8060008114612ab3576040519150601f19603f3d011682016040523d82523d6000602084013e612ab8565b606091505b50600081511415612afe576040517f08c379a0000000000000000000000000000000000000000000000000000000008152600401612af590614890565b60405180910390fd5b805181602001fd5b63150b7a0260e01b7bffffffffffffffffffffffffffffffffffffffffffffffffffffffff1916817bffffffffffffffffffffffffffffffffffffffffffffffffffffffff191614915050612b5b565b600190505b949350505050565b505050565b6008805490506009600083815260200190815260200160002081905550600881908060018154018082558091505060019003906000526020600020016000909190919091505550565b60006001612bbe8461133f565b612bc891906147ea565b9050600060076000848152602001908152602001600020549050818114612cad576000600660008673ffffffffffffffffffffffffffffffffffffffff1673ffffffffffffffffffffffffffffffffffffffff168152602001908152602001600020600084815260200190815260200160002054905080600660008773ffffffffffffffffffffffffffffffffffffffff1673ffffffffffffffffffffffffffffffffffffffff168152602001908152602001600020600084815260200190815260200160002081905550816007600083815260200190815260200160002081905550505b6007600084815260200190815260200160002060009055600660008573ffffffffffffffffffffffffffffffffffffffff1673ffffffffffffffffffffffffffffffffffffffff16815260200190815260200160002060008381526020019081526020016000206000905550505050565b60006001600880549050612d3291906147ea565b9050600060096000848152602001908152602001600020549050600060088381548110612d6257612d61613ecc565b5b906000526020600020015490508060088381548110612d8457612d83613ecc565b5b906000526020600020018190555081600960008381526020019081526020016000208190555060096000858152602001908152602001600020600090556008805480612dd357612dd2614a91565b5b6001900381819060005260206000200160009055905550505050565b6000612dfa8361133f565b905081600660008573ffffffffffffffffffffffffffffffffffffffff1673ffffffffffffffffffffffffffffffffffffffff168152602001908152602001600020600083815260200190815260200160002081905550806007600084815260200190815260200160002081905550505050565b612e788383612edc565b612e8560008484846129db565b612ec4576040517f08c379a0000000000000000000000000000000000000000000000000000000008152600401612ebb90614890565b60405180910390fd5b505050565b600080823b905060008111915050919050565b600073ffffffffffffffffffffffffffffffffffffffff168273ffffffffffffffffffffffffffffffffffffffff161415612f4c576040517f08c379a0000000000000000000000000000000000000000000000000000000008152600401612f4390614b0c565b60405180910390fd5b612f5581611fca565b15612f95576040517f08c379a0000000000000000000000000000000000000000000000000000000008152600401612f8c90614b78565b60405180910390fd5b612fa16000838361289b565b6001600360008473ffffffffffffffffffffffffffffffffffffffff1673ffffffffffffffffffffffffffffffffffffffff1681526020019081526020016000206000828254612ff19190613d2f565b92505081905550816002600083815260200190815260200160002060006101000a81548173ffffffffffffffffffffffffffffffffffffffff021916908373ffffffffffffffffffffffffffffffffffffffff160217905550808273ffffffffffffffffffffffffffffffffffffffff16600073ffffffffffffffffffffffffffffffffffffffff167fddf252ad1be2c89b69c2b068fc378daa952ba7f163c4a11628f55a4df523b3ef60405160405180910390a45050565b8280546130b690613a1a565b90600052602060002090601f0160209004810192826130d8576000855561311f565b82601f106130f157805160ff191683800117855561311f565b8280016001018555821561311f579182015b8281111561311e578251825591602001919060010190613103565b5b50905061312c9190613130565b5090565b5b80821115613149576000816000905550600101613131565b5090565b6000604051905090565b600080fd5b600080fd5b60007fffffffff0000000000000000000000000000000000000000000000000000000082169050919050565b61319681613161565b81146131a157600080fd5b50565b6000813590506131b38161318d565b92915050565b6000602082840312156131cf576131ce613157565b5b60006131dd848285016131a4565b91505092915050565b60008115159050919050565b6131fb816131e6565b82525050565b600060208201905061321660008301846131f2565b92915050565b600081519050919050565b600082825260208201905092915050565b60005b8381101561325657808201518184015260208101905061323b565b83811115613265576000848401525b50505050565b6000601f19601f8301169050919050565b60006132878261321c565b6132918185613227565b93506132a1818560208601613238565b6132aa8161326b565b840191505092915050565b600060208201905081810360008301526132cf818461327c565b905092915050565b6000819050919050565b6132ea816132d7565b81146132f557600080fd5b50565b600081359050613307816132e1565b92915050565b60006020828403121561332357613322613157565b5b6000613331848285016132f8565b91505092915050565b600073ffffffffffffffffffffffffffffffffffffffff82169050919050565b60006133658261333a565b9050919050565b6133758161335a565b82525050565b6000602082019050613390600083018461336c565b92915050565b61339f8161335a565b81146133aa57600080fd5b50565b6000813590506133bc81613396565b92915050565b600080604083850312156133d9576133d8613157565b5b60006133e7858286016133ad565b92505060206133f8858286016132f8565b9150509250929050565b61340b816132d7565b82525050565b60006020820190506134266000830184613402565b92915050565b60008060006060848603121561344557613444613157565b5b6000613453868287016133ad565b9350506020613464868287016133ad565b9250506040613475868287016132f8565b9150509250925092565b60006020828403121561349557613494613157565b5b60006134a3848285016133ad565b91505092915050565b600081519050919050565b600082825260208201905092915050565b6000819050602082019050919050565b6134e1816132d7565b82525050565b60006134f383836134d8565b60208301905092915050565b6000602082019050919050565b6000613517826134ac565b61352181856134b7565b935061352c836134c8565b8060005b8381101561355d57815161354488826134e7565b975061354f836134ff565b925050600181019050613530565b5085935050505092915050565b60006020820190508181036000830152613584818461350c565b905092915050565b600080fd5b600080fd5b7f4e487b7100000000000000000000000000000000000000000000000000000000600052604160045260246000fd5b6135ce8261326b565b810181811067ffffffffffffffff821117156135ed576135ec613596565b5b80604052505050565b600061360061314d565b905061360c82826135c5565b919050565b600067ffffffffffffffff82111561362c5761362b613596565b5b6136358261326b565b9050602081019050919050565b82818337600083830152505050565b600061366461365f84613611565b6135f6565b9050828152602081018484840111156136805761367f613591565b5b61368b848285613642565b509392505050565b600082601f8301126136a8576136a761358c565b5b81356136b8848260208601613651565b91505092915050565b6000602082840312156136d7576136d6613157565b5b600082013567ffffffffffffffff8111156136f5576136f461315c565b5b61370184828501613693565b91505092915050565b600067ffffffffffffffff82111561372557613724613596565b5b602082029050602081019050919050565b600080fd5b600061374e6137498461370a565b6135f6565b9050808382526020820190506020840283018581111561377157613770613736565b5b835b8181101561379a578061378688826133ad565b845260208401935050602081019050613773565b5050509392505050565b600082601f8301126137b9576137b861358c565b5b81356137c984826020860161373b565b91505092915050565b6000602082840312156137e8576137e7613157565b5b600082013567ffffffffffffffff8111156138065761380561315c565b5b613812848285016137a4565b91505092915050565b613824816131e6565b811461382f57600080fd5b50565b6000813590506138418161381b565b92915050565b6000806040838503121561385e5761385d613157565b5b600061386c858286016133ad565b925050602061387d85828601613832565b9150509250929050565b600067ffffffffffffffff8211156138a2576138a1613596565b5b6138ab8261326b565b9050602081019050919050565b60006138cb6138c684613887565b6135f6565b9050828152602081018484840111156138e7576138e6613591565b5b6138f2848285613642565b509392505050565b600082601f83011261390f5761390e61358c565b5b813561391f8482602086016138b8565b91505092915050565b6000806000806080858703121561394257613941613157565b5b6000613950878288016133ad565b9450506020613961878288016133ad565b9350506040613972878288016132f8565b925050606085013567ffffffffffffffff8111156139935761399261315c565b5b61399f878288016138fa565b91505092959194509250565b600080604083850312156139c2576139c1613157565b5b60006139d0858286016133ad565b92505060206139e1858286016133ad565b9150509250929050565b7f4e487b7100000000000000000000000000000000000000000000000000000000600052602260045260246000fd5b60006002820490506001821680613a3257607f821691505b60208210811415613a4657613a456139eb565b5b50919050565b7f4552433732313a20617070726f76656420717565727920666f72206e6f6e657860008201527f697374656e7420746f6b656e0000000000000000000000000000000000000000602082015250565b6000613aa8602c83613227565b9150613ab382613a4c565b604082019050919050565b60006020820190508181036000830152613ad781613a9b565b9050919050565b7f4552433732313a20617070726f76616c20746f2063757272656e74206f776e6560008201527f7200000000000000000000000000000000000000000000000000000000000000602082015250565b6000613b3a602183613227565b9150613b4582613ade565b604082019050919050565b60006020820190508181036000830152613b6981613b2d565b9050919050565b7f4552433732313a20617070726f76652063616c6c6572206973206e6f74206f7760008201527f6e6572206e6f7220617070726f76656420666f7220616c6c0000000000000000602082015250565b6000613bcc603883613227565b9150613bd782613b70565b604082019050919050565b60006020820190508181036000830152613bfb81613bbf565b9050919050565b7f4f776e61626c653a2063616c6c6572206973206e6f7420746865206f776e6572600082015250565b6000613c38602083613227565b9150613c4382613c02565b602082019050919050565b60006020820190508181036000830152613c6781613c2b565b9050919050565b7f4552433732313a207472616e736665722063616c6c6572206973206e6f74206f60008201527f776e6572206e6f7220617070726f766564000000000000000000000000000000602082015250565b6000613cca603183613227565b9150613cd582613c6e565b604082019050919050565b60006020820190508181036000830152613cf981613cbd565b9050919050565b7f4e487b7100000000000000000000000000000000000000000000000000000000600052601160045260246000fd5b6000613d3a826132d7565b9150613d45836132d7565b9250827fffffffffffffffffffffffffffffffffffffffffffffffffffffffffffffffff03821115613d7a57613d79613d00565b5b828201905092915050565b7f4d61782072657365727665206578636565646564000000000000000000000000600082015250565b6000613dbb601483613227565b9150613dc682613d85565b602082019050919050565b60006020820190508181036000830152613dea81613dae565b9050919050565b6000613dfc826132d7565b91507fffffffffffffffffffffffffffffffffffffffffffffffffffffffffffffffff821415613e2f57613e2e613d00565b5b600182019050919050565b7f455243373231456e756d657261626c653a206f776e657220696e646578206f7560008201527f74206f6620626f756e6473000000000000000000000000000000000000000000602082015250565b6000613e96602b83613227565b9150613ea182613e3a565b604082019050919050565b60006020820190508181036000830152613ec581613e89565b9050919050565b7f4e487b7100000000000000000000000000000000000000000000000000000000600052603260045260246000fd5b7f455243373231456e756d657261626c653a20676c6f62616c20696e646578206f60008201527f7574206f6620626f756e64730000000000000000000000000000000000000000602082015250565b6000613f57602c83613227565b9150613f6282613efb565b604082019050919050565b60006020820190508181036000830152613f8681613f4a565b9050919050565b7f506c656173652070726f7669646520746865206c697374206f662077616c6c6560008201527f747320666f72207468652061697264726f700000000000000000000000000000602082015250565b6000613fe9603283613227565b9150613ff482613f8d565b604082019050919050565b6000602082019050818103600083015261401881613fdc565b9050919050565b7f4552433732313a206f776e657220717565727920666f72206e6f6e657869737460008201527f656e7420746f6b656e0000000000000000000000000000000000000000000000602082015250565b600061407b602983613227565b91506140868261401f565b604082019050919050565b600060208201905081810360008301526140aa8161406e565b9050919050565b7f4552433732313a2062616c616e636520717565727920666f7220746865207a6560008201527f726f206164647265737300000000000000000000000000000000000000000000602082015250565b600061410d602a83613227565b9150614118826140b1565b604082019050919050565b6000602082019050818103600083015261413c81614100565b9050919050565b7f53616c65206973206e6f74206f70656e00000000000000000000000000000000600082015250565b6000614179601083613227565b915061418482614143565b602082019050919050565b600060208201905081810360008301526141a88161416c565b9050919050565b7f4d6178206c696d69740000000000000000000000000000000000000000000000600082015250565b60006141e5600983613227565b91506141f0826141af565b602082019050919050565b60006020820190508181036000830152614214816141d8565b9050919050565b7f416c6c2074686520233820636c7562206e66742061726520736f6c64206f7574600082015250565b6000614251602083613227565b915061425c8261421b565b602082019050919050565b6000602082019050818103600083015261428081614244565b9050919050565b7f45786365656473206e756d626572000000000000000000000000000000000000600082015250565b60006142bd600e83613227565b91506142c882614287565b602082019050919050565b600060208201905081810360008301526142ec816142b0565b9050919050565b7f53616c65206973205061757365642e0000000000000000000000000000000000600082015250565b6000614329600f83613227565b9150614334826142f3565b602082019050919050565b600060208201905081810360008301526143588161431c565b9050919050565b7f45786365656473204e4654277320616c6c6f776564207065722077616c6c6574600082015250565b6000614395602083613227565b91506143a08261435f565b602082019050919050565b600060208201905081810360008301526143c481614388565b9050919050565b7f56616c75652062656c6f77207072696365000000000000000000000000000000600082015250565b6000614401601183613227565b915061440c826143cb565b602082019050919050565b60006020820190508181036000830152614430816143f4565b9050919050565b7f4552433732313a20617070726f766520746f2063616c6c657200000000000000600082015250565b600061446d601983613227565b915061447882614437565b602082019050919050565b6000602082019050818103600083015261449c81614460565b9050919050565b7f4552433732314d657461646174613a2055524920717565727920666f72206e6f60008201527f6e6578697374656e7420746f6b656e0000000000000000000000000000000000602082015250565b60006144ff602f83613227565b915061450a826144a3565b604082019050919050565b6000602082019050818103600083015261452e816144f2565b9050919050565b600081905092915050565b600061454b8261321c565b6145558185614535565b9350614565818560208601613238565b80840191505092915050565b600061457d8286614540565b91506145898285614540565b91506145958284614540565b9150819050949350505050565b7f4f776e61626c653a206e6577206f776e657220697320746865207a65726f206160008201527f6464726573730000000000000000000000000000000000000000000000000000602082015250565b60006145fe602683613227565b9150614609826145a2565b604082019050919050565b6000602082019050818103600083015261462d816145f1565b9050919050565b7f4552433732313a206f70657261746f7220717565727920666f72206e6f6e657860008201527f697374656e7420746f6b656e0000000000000000000000000000000000000000602082015250565b6000614690602c83613227565b915061469b82614634565b604082019050919050565b600060208201905081810360008301526146bf81614683565b9050919050565b7f4552433732313a207472616e73666572206f6620746f6b656e2074686174206960008201527f73206e6f74206f776e0000000000000000000000000000000000000000000000602082015250565b6000614722602983613227565b915061472d826146c6565b604082019050919050565b6000602082019050818103600083015261475181614715565b9050919050565b7f4552433732313a207472616e7366657220746f20746865207a65726f2061646460008201527f7265737300000000000000000000000000000000000000000000000000000000602082015250565b60006147b4602483613227565b91506147bf82614758565b604082019050919050565b600060208201905081810360008301526147e3816147a7565b9050919050565b60006147f5826132d7565b9150614800836132d7565b92508282101561481357614812613d00565b5b828203905092915050565b7f4552433732313a207472616e7366657220746f206e6f6e20455243373231526560008201527f63656976657220696d706c656d656e7465720000000000000000000000000000602082015250565b600061487a603283613227565b91506148858261481e565b604082019050919050565b600060208201905081810360008301526148a98161486d565b9050919050565b7f4e487b7100000000000000000000000000000000000000000000000000000000600052601260045260246000fd5b60006148ea826132d7565b91506148f5836132d7565b925082614905576149046148b0565b5b828204905092915050565b600061491b826132d7565b9150614926836132d7565b9250817fffffffffffffffffffffffffffffffffffffffffffffffffffffffffffffffff048311821515161561495f5761495e613d00565b5b828202905092915050565b600060ff82169050919050565b60006149828261496a565b915061498d8361496a565b92508260ff038211156149a3576149a2613d00565b5b828201905092915050565b600081519050919050565b600082825260208201905092915050565b60006149d5826149ae565b6149df81856149b9565b93506149ef818560208601613238565b6149f88161326b565b840191505092915050565b6000608082019050614a18600083018761336c565b614a25602083018661336c565b614a326040830185613402565b8181036060830152614a4481846149ca565b905095945050505050565b600081519050614a5e8161318d565b92915050565b600060208284031215614a7a57614a79613157565b5b6000614a8884828501614a4f565b91505092915050565b7f4e487b7100000000000000000000000000000000000000000000000000000000600052603160045260246000fd5b7f4552433732313a206d696e7420746f20746865207a65726f2061646472657373600082015250565b6000614af6602083613227565b9150614b0182614ac0565b602082019050919050565b60006020820190508181036000830152614b2581614ae9565b9050919050565b7f4552433732313a20746f6b656e20616c7265616479206d696e74656400000000600082015250565b6000614b62601c83613227565b9150614b6d82614b2c565b602082019050919050565b60006020820190508181036000830152614b9181614b55565b905091905056fea2646970667358221220ebb9e1ebeef79605903bf77a0f92adf2dca6627666fb4ee0a355ecaaf7a8c02764736f6c634300080a0033",
  "immutableReferences": {},
  "source": "// SPDX-License-Identifier: MIT\r\npragma solidity ^0.8.10;\r\n\r\nlibrary SafeMath {\r\n    function tryAdd(uint256 a, uint256 b)\r\n        internal\r\n        pure\r\n        returns (bool, uint256)\r\n    {\r\n        unchecked {\r\n            uint256 c = a + b;\r\n            if (c < a) return (false, 0);\r\n            return (true, c);\r\n        }\r\n    }\r\n\r\n    function trySub(uint256 a, uint256 b)\r\n        internal\r\n        pure\r\n        returns (bool, uint256)\r\n    {\r\n        unchecked {\r\n            if (b > a) return (false, 0);\r\n            return (true, a - b);\r\n        }\r\n    }\r\n\r\n    function tryMul(uint256 a, uint256 b)\r\n        internal\r\n        pure\r\n        returns (bool, uint256)\r\n    {\r\n        unchecked {\r\n            // Gas optimization: this is cheaper than requiring 'a' not being zero, but the\r\n            // benefit is lost if 'b' is also tested.\r\n            // See: https://github.com/OpenZeppelin/openzeppelin-contracts/pull/522\r\n            if (a == 0) return (true, 0);\r\n            uint256 c = a * b;\r\n            if (c / a != b) return (false, 0);\r\n            return (true, c);\r\n        }\r\n    }\r\n\r\n    function tryDiv(uint256 a, uint256 b)\r\n        internal\r\n        pure\r\n        returns (bool, uint256)\r\n    {\r\n        unchecked {\r\n            if (b == 0) return (false, 0);\r\n            return (true, a / b);\r\n        }\r\n    }\r\n\r\n    function tryMod(uint256 a, uint256 b)\r\n        internal\r\n        pure\r\n        returns (bool, uint256)\r\n    {\r\n        unchecked {\r\n            if (b == 0) return (false, 0);\r\n            return (true, a % b);\r\n        }\r\n    }\r\n\r\n    function add(uint256 a, uint256 b) internal pure returns (uint256) {\r\n        return a + b;\r\n    }\r\n\r\n    function sub(uint256 a, uint256 b) internal pure returns (uint256) {\r\n        return a - b;\r\n    }\r\n\r\n    function mul(uint256 a, uint256 b) internal pure returns (uint256) {\r\n        return a * b;\r\n    }\r\n\r\n    function div(uint256 a, uint256 b) internal pure returns (uint256) {\r\n        return a / b;\r\n    }\r\n\r\n    function mod(uint256 a, uint256 b) internal pure returns (uint256) {\r\n        return a % b;\r\n    }\r\n\r\n    function sub(\r\n        uint256 a,\r\n        uint256 b,\r\n        string memory errorMessage\r\n    ) internal pure returns (uint256) {\r\n        unchecked {\r\n            require(b <= a, errorMessage);\r\n            return a - b;\r\n        }\r\n    }\r\n\r\n    function div(\r\n        uint256 a,\r\n        uint256 b,\r\n        string memory errorMessage\r\n    ) internal pure returns (uint256) {\r\n        unchecked {\r\n            require(b > 0, errorMessage);\r\n            return a / b;\r\n        }\r\n    }\r\n\r\n    function mod(\r\n        uint256 a,\r\n        uint256 b,\r\n        string memory errorMessage\r\n    ) internal pure returns (uint256) {\r\n        unchecked {\r\n            require(b > 0, errorMessage);\r\n            return a % b;\r\n        }\r\n    }\r\n}\r\n\r\nlibrary Counters {\r\n    struct Counter {\r\n        uint256 _value; // default: 0\r\n    }\r\n\r\n    function current(Counter storage counter) internal view returns (uint256) {\r\n        return counter._value;\r\n    }\r\n\r\n    function increment(Counter storage counter) internal {\r\n        unchecked {\r\n            counter._value += 1;\r\n        }\r\n    }\r\n\r\n    function decrement(Counter storage counter) internal {\r\n        uint256 value = counter._value;\r\n        require(value > 0, \"Counter: decrement overflow\");\r\n        unchecked {\r\n            counter._value = value - 1;\r\n        }\r\n    }\r\n\r\n    function reset(Counter storage counter) internal {\r\n        counter._value = 0;\r\n    }\r\n}\r\n\r\ninterface IERC20 {\r\n    function totalSupply() external view returns (uint256);\r\n\r\n    function balanceOf(address account) external view returns (uint256);\r\n\r\n    function transfer(address recipient, uint256 amount)\r\n        external\r\n        returns (bool);\r\n\r\n    function allowance(address owner, address spender)\r\n        external\r\n        view\r\n        returns (uint256);\r\n\r\n    function approve(address spender, uint256 amount) external returns (bool);\r\n\r\n    function transferFrom(\r\n        address sender,\r\n        address recipient,\r\n        uint256 amount\r\n    ) external returns (bool);\r\n\r\n    event Transfer(address indexed from, address indexed to, uint256 value);\r\n\r\n    event Approval(\r\n        address indexed owner,\r\n        address indexed spender,\r\n        uint256 value\r\n    );\r\n}\r\n\r\ninterface IERC165 {\r\n    function supportsInterface(bytes4 interfaceId) external view returns (bool);\r\n}\r\n\r\ninterface IERC721 is IERC165 {\r\n    event Transfer(\r\n        address indexed from,\r\n        address indexed to,\r\n        uint256 indexed tokenId\r\n    );\r\n\r\n    event Approval(\r\n        address indexed owner,\r\n        address indexed approved,\r\n        uint256 indexed tokenId\r\n    );\r\n\r\n    event ApprovalForAll(\r\n        address indexed owner,\r\n        address indexed operator,\r\n        bool approved\r\n    );\r\n\r\n    function balanceOf(address owner) external view returns (uint256 balance);\r\n\r\n    function ownerOf(uint256 tokenId) external view returns (address owner);\r\n\r\n    function safeTransferFrom(\r\n        address from,\r\n        address to,\r\n        uint256 tokenId\r\n    ) external;\r\n\r\n    function transferFrom(\r\n        address from,\r\n        address to,\r\n        uint256 tokenId\r\n    ) external;\r\n\r\n    function approve(address to, uint256 tokenId) external;\r\n\r\n    function getApproved(uint256 tokenId)\r\n        external\r\n        view\r\n        returns (address operator);\r\n\r\n    function setApprovalForAll(address operator, bool _approved) external;\r\n\r\n    function isApprovedForAll(address owner, address operator)\r\n        external\r\n        view\r\n        returns (bool);\r\n\r\n    function safeTransferFrom(\r\n        address from,\r\n        address to,\r\n        uint256 tokenId,\r\n        bytes calldata data\r\n    ) external;\r\n}\r\n\r\ninterface IERC721Receiver {\r\n    function onERC721Received(\r\n        address operator,\r\n        address from,\r\n        uint256 tokenId,\r\n        bytes calldata data\r\n    ) external returns (bytes4);\r\n}\r\n\r\ninterface IERC721Metadata is IERC721 {\r\n    function name() external view returns (string memory);\r\n\r\n    function symbol() external view returns (string memory);\r\n\r\n    function tokenURI(uint256 tokenId) external view returns (string memory);\r\n}\r\n\r\nlibrary Address {\r\n    function isContract(address account) internal view returns (bool) {\r\n        // This method relies on extcodesize, which returns 0 for contracts in\r\n        // construction, since the code is only stored at the end of the\r\n        // constructor execution.\r\n\r\n        uint256 size;\r\n        assembly {\r\n            size := extcodesize(account)\r\n        }\r\n        return size > 0;\r\n    }\r\n\r\n    function sendValue(address payable recipient, uint256 amount) internal {\r\n        require(\r\n            address(this).balance >= amount,\r\n            \"Address: insufficient balance\"\r\n        );\r\n\r\n        (bool success, ) = recipient.call{value: amount}(\"\");\r\n        require(\r\n            success,\r\n            \"Address: unable to send value, recipient may have reverted\"\r\n        );\r\n    }\r\n\r\n    function functionCall(address target, bytes memory data)\r\n        internal\r\n        returns (bytes memory)\r\n    {\r\n        return functionCall(target, data, \"Address: low-level call failed\");\r\n    }\r\n\r\n    function functionCall(\r\n        address target,\r\n        bytes memory data,\r\n        string memory errorMessage\r\n    ) internal returns (bytes memory) {\r\n        return functionCallWithValue(target, data, 0, errorMessage);\r\n    }\r\n\r\n    function functionCallWithValue(\r\n        address target,\r\n        bytes memory data,\r\n        uint256 value\r\n    ) internal returns (bytes memory) {\r\n        return\r\n            functionCallWithValue(\r\n                target,\r\n                data,\r\n                value,\r\n                \"Address: low-level call with value failed\"\r\n            );\r\n    }\r\n\r\n    function functionCallWithValue(\r\n        address target,\r\n        bytes memory data,\r\n        uint256 value,\r\n        string memory errorMessage\r\n    ) internal returns (bytes memory) {\r\n        require(\r\n            address(this).balance >= value,\r\n            \"Address: insufficient balance for call\"\r\n        );\r\n        require(isContract(target), \"Address: call to non-contract\");\r\n\r\n        (bool success, bytes memory returndata) = target.call{value: value}(\r\n            data\r\n        );\r\n        return verifyCallResult(success, returndata, errorMessage);\r\n    }\r\n\r\n    function functionStaticCall(address target, bytes memory data)\r\n        internal\r\n        view\r\n        returns (bytes memory)\r\n    {\r\n        return\r\n            functionStaticCall(\r\n                target,\r\n                data,\r\n                \"Address: low-level static call failed\"\r\n            );\r\n    }\r\n\r\n    function functionStaticCall(\r\n        address target,\r\n        bytes memory data,\r\n        string memory errorMessage\r\n    ) internal view returns (bytes memory) {\r\n        require(isContract(target), \"Address: static call to non-contract\");\r\n\r\n        (bool success, bytes memory returndata) = target.staticcall(data);\r\n        return verifyCallResult(success, returndata, errorMessage);\r\n    }\r\n\r\n    function functionDelegateCall(address target, bytes memory data)\r\n        internal\r\n        returns (bytes memory)\r\n    {\r\n        return\r\n            functionDelegateCall(\r\n                target,\r\n                data,\r\n                \"Address: low-level delegate call failed\"\r\n            );\r\n    }\r\n\r\n    function functionDelegateCall(\r\n        address target,\r\n        bytes memory data,\r\n        string memory errorMessage\r\n    ) internal returns (bytes memory) {\r\n        require(isContract(target), \"Address: delegate call to non-contract\");\r\n\r\n        (bool success, bytes memory returndata) = target.delegatecall(data);\r\n        return verifyCallResult(success, returndata, errorMessage);\r\n    }\r\n\r\n    function verifyCallResult(\r\n        bool success,\r\n        bytes memory returndata,\r\n        string memory errorMessage\r\n    ) internal pure returns (bytes memory) {\r\n        if (success) {\r\n            return returndata;\r\n        } else {\r\n            // Look for revert reason and bubble it up if present\r\n            if (returndata.length > 0) {\r\n                // The easiest way to bubble the revert reason is using memory via assembly\r\n\r\n                assembly {\r\n                    let returndata_size := mload(returndata)\r\n                    revert(add(32, returndata), returndata_size)\r\n                }\r\n            } else {\r\n                revert(errorMessage);\r\n            }\r\n        }\r\n    }\r\n}\r\n\r\nabstract contract Context {\r\n    function _msgSender() internal view virtual returns (address) {\r\n        return msg.sender;\r\n    }\r\n\r\n    function _msgData() internal view virtual returns (bytes calldata) {\r\n        return msg.data;\r\n    }\r\n}\r\n\r\nlibrary Strings {\r\n    bytes16 private constant _HEX_SYMBOLS = \"0123456789abcdef\";\r\n\r\n    /**\r\n     * @dev Converts a `uint256` to its ASCII `string` decimal representation.\r\n     */\r\n    function toString(uint256 value) internal pure returns (string memory) {\r\n        // Inspired by OraclizeAPI's implementation - MIT licence\r\n        // https://github.com/oraclize/ethereum-api/blob/b42146b063c7d6ee1358846c198246239e9360e8/oraclizeAPI_0.4.25.sol\r\n\r\n        if (value == 0) {\r\n            return \"0\";\r\n        }\r\n        uint256 temp = value;\r\n        uint256 digits;\r\n        while (temp != 0) {\r\n            digits++;\r\n            temp /= 10;\r\n        }\r\n        bytes memory buffer = new bytes(digits);\r\n        while (value != 0) {\r\n            digits -= 1;\r\n            buffer[digits] = bytes1(uint8(48 + uint256(value % 10)));\r\n            value /= 10;\r\n        }\r\n        return string(buffer);\r\n    }\r\n\r\n    /**\r\n     * @dev Converts a `uint256` to its ASCII `string` hexadecimal representation.\r\n     */\r\n    function toHexString(uint256 value) internal pure returns (string memory) {\r\n        if (value == 0) {\r\n            return \"0x00\";\r\n        }\r\n        uint256 temp = value;\r\n        uint256 length = 0;\r\n        while (temp != 0) {\r\n            length++;\r\n            temp >>= 8;\r\n        }\r\n        return toHexString(value, length);\r\n    }\r\n\r\n    /**\r\n     * @dev Converts a `uint256` to its ASCII `string` hexadecimal representation with fixed length.\r\n     */\r\n    function toHexString(uint256 value, uint256 length)\r\n        internal\r\n        pure\r\n        returns (string memory)\r\n    {\r\n        bytes memory buffer = new bytes(2 * length + 2);\r\n        buffer[0] = \"0\";\r\n        buffer[1] = \"x\";\r\n        for (uint256 i = 2 * length + 1; i > 1; --i) {\r\n            buffer[i] = _HEX_SYMBOLS[value & 0xf];\r\n            value >>= 4;\r\n        }\r\n        require(value == 0, \"Strings: hex length insufficient\");\r\n        return string(buffer);\r\n    }\r\n}\r\n\r\nabstract contract ERC165 is IERC165 {\r\n    /**\r\n     * @dev See {IERC165-supportsInterface}.\r\n     */\r\n    function supportsInterface(bytes4 interfaceId)\r\n        public\r\n        view\r\n        virtual\r\n        override\r\n        returns (bool)\r\n    {\r\n        return interfaceId == type(IERC165).interfaceId;\r\n    }\r\n}\r\n\r\ncontract ERC721 is Context, ERC165, IERC721, IERC721Metadata {\r\n    using Address for address;\r\n    using Strings for uint256;\r\n\r\n    // Token name\r\n    string private _name;\r\n\r\n    // Token symbol\r\n    string private _symbol;\r\n\r\n    // Mapping from token ID to owner address\r\n    mapping(uint256 => address) private _owners;\r\n\r\n    // Mapping owner address to token count\r\n    mapping(address => uint256) private _balances;\r\n\r\n    // Mapping from token ID to approved address\r\n    mapping(uint256 => address) private _tokenApprovals;\r\n\r\n    // Mapping from owner to operator approvals\r\n    mapping(address => mapping(address => bool)) private _operatorApprovals;\r\n\r\n    constructor(string memory name_, string memory symbol_) {\r\n        _name = name_;\r\n        _symbol = symbol_;\r\n    }\r\n\r\n    function supportsInterface(bytes4 interfaceId)\r\n        public\r\n        view\r\n        virtual\r\n        override(ERC165, IERC165)\r\n        returns (bool)\r\n    {\r\n        return\r\n            interfaceId == type(IERC721).interfaceId ||\r\n            interfaceId == type(IERC721Metadata).interfaceId ||\r\n            super.supportsInterface(interfaceId);\r\n    }\r\n\r\n    function balanceOf(address owner)\r\n        public\r\n        view\r\n        virtual\r\n        override\r\n        returns (uint256)\r\n    {\r\n        require(\r\n            owner != address(0),\r\n            \"ERC721: balance query for the zero address\"\r\n        );\r\n        return _balances[owner];\r\n    }\r\n\r\n    function ownerOf(uint256 tokenId)\r\n        public\r\n        view\r\n        virtual\r\n        override\r\n        returns (address)\r\n    {\r\n        address owner = _owners[tokenId];\r\n        require(\r\n            owner != address(0),\r\n            \"ERC721: owner query for nonexistent token\"\r\n        );\r\n        return owner;\r\n    }\r\n\r\n    function name() public view virtual override returns (string memory) {\r\n        return _name;\r\n    }\r\n\r\n    function symbol() public view virtual override returns (string memory) {\r\n        return _symbol;\r\n    }\r\n\r\n    function tokenURI(uint256 tokenId)\r\n        public\r\n        view\r\n        virtual\r\n        override\r\n        returns (string memory)\r\n    {\r\n        require(\r\n            _exists(tokenId),\r\n            \"ERC721Metadata: URI query for nonexistent token\"\r\n        );\r\n\r\n        string memory baseURI = _baseURI();\r\n        return\r\n            bytes(baseURI).length > 0\r\n                ? string(abi.encodePacked(baseURI, tokenId.toString()))\r\n                : \"\";\r\n    }\r\n\r\n    function _baseURI() internal view virtual returns (string memory) {\r\n        return \"\";\r\n    }\r\n\r\n    function approve(address to, uint256 tokenId) public virtual override {\r\n        address owner = ERC721.ownerOf(tokenId);\r\n        require(to != owner, \"ERC721: approval to current owner\");\r\n\r\n        require(\r\n            _msgSender() == owner || isApprovedForAll(owner, _msgSender()),\r\n            \"ERC721: approve caller is not owner nor approved for all\"\r\n        );\r\n\r\n        _approve(to, tokenId);\r\n    }\r\n\r\n    function getApproved(uint256 tokenId)\r\n        public\r\n        view\r\n        virtual\r\n        override\r\n        returns (address)\r\n    {\r\n        require(\r\n            _exists(tokenId),\r\n            \"ERC721: approved query for nonexistent token\"\r\n        );\r\n\r\n        return _tokenApprovals[tokenId];\r\n    }\r\n\r\n    function setApprovalForAll(address operator, bool approved)\r\n        public\r\n        virtual\r\n        override\r\n    {\r\n        require(operator != _msgSender(), \"ERC721: approve to caller\");\r\n\r\n        _operatorApprovals[_msgSender()][operator] = approved;\r\n        emit ApprovalForAll(_msgSender(), operator, approved);\r\n    }\r\n\r\n    function isApprovedForAll(address owner, address operator)\r\n        public\r\n        view\r\n        virtual\r\n        override\r\n        returns (bool)\r\n    {\r\n        return _operatorApprovals[owner][operator];\r\n    }\r\n\r\n    function transferFrom(\r\n        address from,\r\n        address to,\r\n        uint256 tokenId\r\n    ) public virtual override {\r\n        //solhint-disable-next-line max-line-length\r\n        require(\r\n            _isApprovedOrOwner(_msgSender(), tokenId),\r\n            \"ERC721: transfer caller is not owner nor approved\"\r\n        );\r\n\r\n        _transfer(from, to, tokenId);\r\n    }\r\n\r\n    function safeTransferFrom(\r\n        address from,\r\n        address to,\r\n        uint256 tokenId\r\n    ) public virtual override {\r\n        safeTransferFrom(from, to, tokenId, \"\");\r\n    }\r\n\r\n    function safeTransferFrom(\r\n        address from,\r\n        address to,\r\n        uint256 tokenId,\r\n        bytes memory _data\r\n    ) public virtual override {\r\n        require(\r\n            _isApprovedOrOwner(_msgSender(), tokenId),\r\n            \"ERC721: transfer caller is not owner nor approved\"\r\n        );\r\n        _safeTransfer(from, to, tokenId, _data);\r\n    }\r\n\r\n    function _safeTransfer(\r\n        address from,\r\n        address to,\r\n        uint256 tokenId,\r\n        bytes memory _data\r\n    ) internal virtual {\r\n        _transfer(from, to, tokenId);\r\n        require(\r\n            _checkOnERC721Received(from, to, tokenId, _data),\r\n            \"ERC721: transfer to non ERC721Receiver implementer\"\r\n        );\r\n    }\r\n\r\n    function _exists(uint256 tokenId) internal view virtual returns (bool) {\r\n        return _owners[tokenId] != address(0);\r\n    }\r\n\r\n    function _isApprovedOrOwner(address spender, uint256 tokenId)\r\n        internal\r\n        view\r\n        virtual\r\n        returns (bool)\r\n    {\r\n        require(\r\n            _exists(tokenId),\r\n            \"ERC721: operator query for nonexistent token\"\r\n        );\r\n        address owner = ERC721.ownerOf(tokenId);\r\n        return (spender == owner ||\r\n            getApproved(tokenId) == spender ||\r\n            isApprovedForAll(owner, spender));\r\n    }\r\n\r\n    function _safeMint(address to, uint256 tokenId) internal virtual {\r\n        _safeMint(to, tokenId, \"\");\r\n    }\r\n\r\n    function _safeMint(\r\n        address to,\r\n        uint256 tokenId,\r\n        bytes memory _data\r\n    ) internal virtual {\r\n        _mint(to, tokenId);\r\n        require(\r\n            _checkOnERC721Received(address(0), to, tokenId, _data),\r\n            \"ERC721: transfer to non ERC721Receiver implementer\"\r\n        );\r\n    }\r\n\r\n    function _mint(address to, uint256 tokenId) internal virtual {\r\n        require(to != address(0), \"ERC721: mint to the zero address\");\r\n        require(!_exists(tokenId), \"ERC721: token already minted\");\r\n\r\n        _beforeTokenTransfer(address(0), to, tokenId);\r\n\r\n        _balances[to] += 1;\r\n        _owners[tokenId] = to;\r\n\r\n        emit Transfer(address(0), to, tokenId);\r\n    }\r\n\r\n    function _burn(uint256 tokenId) internal virtual {\r\n        address owner = ERC721.ownerOf(tokenId);\r\n\r\n        _beforeTokenTransfer(owner, address(0), tokenId);\r\n\r\n        // Clear approvals\r\n        _approve(address(0), tokenId);\r\n\r\n        _balances[owner] -= 1;\r\n        delete _owners[tokenId];\r\n\r\n        emit Transfer(owner, address(0), tokenId);\r\n    }\r\n\r\n    function _transfer(\r\n        address from,\r\n        address to,\r\n        uint256 tokenId\r\n    ) internal virtual {\r\n        require(\r\n            ERC721.ownerOf(tokenId) == from,\r\n            \"ERC721: transfer of token that is not own\"\r\n        );\r\n        require(to != address(0), \"ERC721: transfer to the zero address\");\r\n\r\n        _beforeTokenTransfer(from, to, tokenId);\r\n\r\n        // Clear approvals from the previous owner\r\n        _approve(address(0), tokenId);\r\n\r\n        _balances[from] -= 1;\r\n        _balances[to] += 1;\r\n        _owners[tokenId] = to;\r\n\r\n        emit Transfer(from, to, tokenId);\r\n    }\r\n\r\n    function _approve(address to, uint256 tokenId) internal virtual {\r\n        _tokenApprovals[tokenId] = to;\r\n        emit Approval(ERC721.ownerOf(tokenId), to, tokenId);\r\n    }\r\n\r\n    function _checkOnERC721Received(\r\n        address from,\r\n        address to,\r\n        uint256 tokenId,\r\n        bytes memory _data\r\n    ) private returns (bool) {\r\n        if (to.isContract()) {\r\n            try\r\n                IERC721Receiver(to).onERC721Received(\r\n                    _msgSender(),\r\n                    from,\r\n                    tokenId,\r\n                    _data\r\n                )\r\n            returns (bytes4 retval) {\r\n                return retval == IERC721Receiver.onERC721Received.selector;\r\n            } catch (bytes memory reason) {\r\n                if (reason.length == 0) {\r\n                    revert(\r\n                        \"ERC721: transfer to non ERC721Receiver implementer\"\r\n                    );\r\n                } else {\r\n                    assembly {\r\n                        revert(add(32, reason), mload(reason))\r\n                    }\r\n                }\r\n            }\r\n        } else {\r\n            return true;\r\n        }\r\n    }\r\n\r\n    function _beforeTokenTransfer(\r\n        address from,\r\n        address to,\r\n        uint256 tokenId\r\n    ) internal virtual {}\r\n}\r\n\r\ninterface IERC721Enumerable is IERC721 {\r\n    /**\r\n     * @dev Returns the total amount of tokens stored by the contract.\r\n     */\r\n    function totalSupply() external view returns (uint256);\r\n\r\n    /**\r\n     * @dev Returns a token ID owned by `owner` at a given `index` of its token list.\r\n     * Use along with {balanceOf} to enumerate all of ``owner``'s tokens.\r\n     */\r\n    function tokenOfOwnerByIndex(address owner, uint256 index)\r\n        external\r\n        view\r\n        returns (uint256 tokenId);\r\n\r\n    /**\r\n     * @dev Returns a token ID at a given `index` of all the tokens stored by the contract.\r\n     * Use along with {totalSupply} to enumerate all tokens.\r\n     */\r\n    function tokenByIndex(uint256 index) external view returns (uint256);\r\n}\r\n\r\nabstract contract ERC721Enumerable is ERC721, IERC721Enumerable {\r\n    // Mapping from owner to list of owned token IDs\r\n    mapping(address => mapping(uint256 => uint256)) private _ownedTokens;\r\n\r\n    // Mapping from token ID to index of the owner tokens list\r\n    mapping(uint256 => uint256) private _ownedTokensIndex;\r\n\r\n    // Array with all token ids, used for enumeration\r\n    uint256[] private _allTokens;\r\n\r\n    // Mapping from token id to position in the allTokens array\r\n    mapping(uint256 => uint256) private _allTokensIndex;\r\n\r\n    function supportsInterface(bytes4 interfaceId)\r\n        public\r\n        view\r\n        virtual\r\n        override(IERC165, ERC721)\r\n        returns (bool)\r\n    {\r\n        return\r\n            interfaceId == type(IERC721Enumerable).interfaceId ||\r\n            super.supportsInterface(interfaceId);\r\n    }\r\n\r\n    function tokenOfOwnerByIndex(address owner, uint256 index)\r\n        public\r\n        view\r\n        virtual\r\n        override\r\n        returns (uint256)\r\n    {\r\n        require(\r\n            index < ERC721.balanceOf(owner),\r\n            \"ERC721Enumerable: owner index out of bounds\"\r\n        );\r\n        return _ownedTokens[owner][index];\r\n    }\r\n\r\n    function totalSupply() public view virtual override returns (uint256) {\r\n        return _allTokens.length;\r\n    }\r\n\r\n    function tokenByIndex(uint256 index)\r\n        public\r\n        view\r\n        virtual\r\n        override\r\n        returns (uint256)\r\n    {\r\n        require(\r\n            index < ERC721Enumerable.totalSupply(),\r\n            \"ERC721Enumerable: global index out of bounds\"\r\n        );\r\n        return _allTokens[index];\r\n    }\r\n\r\n    function _beforeTokenTransfer(\r\n        address from,\r\n        address to,\r\n        uint256 tokenId\r\n    ) internal virtual override {\r\n        super._beforeTokenTransfer(from, to, tokenId);\r\n\r\n        if (from == address(0)) {\r\n            _addTokenToAllTokensEnumeration(tokenId);\r\n        } else if (from != to) {\r\n            _removeTokenFromOwnerEnumeration(from, tokenId);\r\n        }\r\n        if (to == address(0)) {\r\n            _removeTokenFromAllTokensEnumeration(tokenId);\r\n        } else if (to != from) {\r\n            _addTokenToOwnerEnumeration(to, tokenId);\r\n        }\r\n    }\r\n\r\n    function _addTokenToOwnerEnumeration(address to, uint256 tokenId) private {\r\n        uint256 length = ERC721.balanceOf(to);\r\n        _ownedTokens[to][length] = tokenId;\r\n        _ownedTokensIndex[tokenId] = length;\r\n    }\r\n\r\n    /**\r\n     * @dev Private function to add a token to this extension's token tracking data structures.\r\n     * @param tokenId uint256 ID of the token to be added to the tokens list\r\n     */\r\n    function _addTokenToAllTokensEnumeration(uint256 tokenId) private {\r\n        _allTokensIndex[tokenId] = _allTokens.length;\r\n        _allTokens.push(tokenId);\r\n    }\r\n\r\n    function _removeTokenFromOwnerEnumeration(address from, uint256 tokenId)\r\n        private\r\n    {\r\n        // To prevent a gap in from's tokens array, we store the last token in the index of the token to delete, and\r\n        // then delete the last slot (swap and pop).\r\n\r\n        uint256 lastTokenIndex = ERC721.balanceOf(from) - 1;\r\n        uint256 tokenIndex = _ownedTokensIndex[tokenId];\r\n\r\n        // When the token to delete is the last token, the swap operation is unnecessary\r\n        if (tokenIndex != lastTokenIndex) {\r\n            uint256 lastTokenId = _ownedTokens[from][lastTokenIndex];\r\n\r\n            _ownedTokens[from][tokenIndex] = lastTokenId; // Move the last token to the slot of the to-delete token\r\n            _ownedTokensIndex[lastTokenId] = tokenIndex; // Update the moved token's index\r\n        }\r\n\r\n        // This also deletes the contents at the last position of the array\r\n        delete _ownedTokensIndex[tokenId];\r\n        delete _ownedTokens[from][lastTokenIndex];\r\n    }\r\n\r\n    function _removeTokenFromAllTokensEnumeration(uint256 tokenId) private {\r\n        // To prevent a gap in the tokens array, we store the last token in the index of the token to delete, and\r\n        // then delete the last slot (swap and pop).\r\n\r\n        uint256 lastTokenIndex = _allTokens.length - 1;\r\n        uint256 tokenIndex = _allTokensIndex[tokenId];\r\n\r\n        // When the token to delete is the last token, the swap operation is unnecessary. However, since this occurs so\r\n        // rarely (when the last minted token is burnt) that we still do the swap here to avoid the gas cost of adding\r\n        // an 'if' statement (like in _removeTokenFromOwnerEnumeration)\r\n        uint256 lastTokenId = _allTokens[lastTokenIndex];\r\n\r\n        _allTokens[tokenIndex] = lastTokenId; // Move the last token to the slot of the to-delete token\r\n        _allTokensIndex[lastTokenId] = tokenIndex; // Update the moved token's index\r\n\r\n        // This also deletes the contents at the last position of the array\r\n        delete _allTokensIndex[tokenId];\r\n        _allTokens.pop();\r\n    }\r\n}\r\n\r\nabstract contract Ownable is Context {\r\n    address private _owner;\r\n\r\n    event OwnershipTransferred(\r\n        address indexed previousOwner,\r\n        address indexed newOwner\r\n    );\r\n\r\n    constructor() {\r\n        _setOwner(_msgSender());\r\n    }\r\n\r\n    function owner() public view virtual returns (address) {\r\n        return _owner;\r\n    }\r\n\r\n    modifier onlyOwner() {\r\n        require(owner() == _msgSender(), \"Ownable: caller is not the owner\");\r\n        _;\r\n    }\r\n\r\n    function renounceOwnership() public virtual onlyOwner {\r\n        _setOwner(address(0));\r\n    }\r\n\r\n    function transferOwnership(address newOwner) public virtual onlyOwner {\r\n        require(\r\n            newOwner != address(0),\r\n            \"Ownable: new owner is the zero address\"\r\n        );\r\n        _setOwner(newOwner);\r\n    }\r\n\r\n    function _setOwner(address newOwner) private {\r\n        address oldOwner = _owner;\r\n        _owner = newOwner;\r\n        emit OwnershipTransferred(oldOwner, newOwner);\r\n    }\r\n}\r\n\r\ncontract TheNumber8Club is ERC721Enumerable, Ownable {\r\n    using SafeMath for uint256;\r\n    using Counters for Counters.Counter;\r\n\r\n    Counters.Counter private _tokenIdTracker;\r\n\r\n    uint256 public constant MAX_ELEMENTS = 8888;\r\n    uint256 public PRICE = 88 * 10**18; // 0.04 ETH\r\n    uint256 public constant MAX_BY_MINT = 5;\r\n    uint256 public constant MAX_WALLET = 30;\r\n    uint256 public MAX_RESERVE_COUNT = 300;\r\n    uint256 public SALE_START = 1649314800;\r\n\r\n    bool public isPaused = false;\r\n    uint256 private _reservedCount = 0;\r\n    uint256 private _reserveAtATime = 10;\r\n\r\n    string public baseTokenURI;\r\n\r\n    event CreateTheNumber8Club(uint256 indexed id);\r\n\r\n    constructor(string memory baseURI) ERC721(\"The#8Club\", \"Number8\") {\r\n        setBaseURI(baseURI);\r\n        _tokenIdTracker.increment();\r\n    }\r\n\r\n    modifier saleIsOpen() {\r\n        if (_msgSender() != owner()) {\r\n            require(block.timestamp > SALE_START, \"Sale is not open\");\r\n        }\r\n        _;\r\n    }\r\n\r\n    function _totalSupply() internal view returns (uint256) {\r\n        return _tokenIdTracker.current();\r\n    }\r\n\r\n    function totalMint() public view returns (uint256) {\r\n        return _totalSupply();\r\n    }\r\n\r\n    function reserveTokens() public onlyOwner {\r\n        require(\r\n            _reservedCount + _reserveAtATime <= MAX_RESERVE_COUNT,\r\n            \"Max reserve exceeded\"\r\n        );\r\n        uint256 i;\r\n        for (i = 0; i < _reserveAtATime; i++) {\r\n            _reservedCount++;\r\n            _mintAnElement(msg.sender);\r\n        }\r\n    }\r\n\r\n    function mint(uint256 _count) public payable saleIsOpen {\r\n        uint256 total = _totalSupply();\r\n        require(total + _count <= MAX_ELEMENTS, \"Max limit\");\r\n        require(\r\n            total <= MAX_ELEMENTS,\r\n            \"All the #8 club nft are sold out\"\r\n        );\r\n        require(_count <= MAX_BY_MINT, \"Exceeds number\");\r\n        require(!isPaused, \"Sale is Paused.\");\r\n        require(\r\n            balanceOf(_msgSender()) + _count <= MAX_WALLET,\r\n            \"Exceeds NFT's allowed per wallet\"\r\n        );\r\n        require(msg.value >= salePrice(_count), \"Value below price\");\r\n\r\n        for (uint256 i = 0; i < _count; i++) {\r\n            _mintAnElement(_msgSender());\r\n        }\r\n        _withdraw(owner(), address(this).balance);\r\n    }\r\n\r\n    function airdropNFT(address[] memory winners) public onlyOwner {\r\n        require(\r\n            winners.length > 0,\r\n            \"Please provide the list of wallets for the airdrop\"\r\n        );\r\n        for (uint256 i = 0; i < winners.length; i++) {\r\n            _mintAnElement(winners[i]);\r\n        }\r\n    }\r\n\r\n    function _mintAnElement(address _to) private {\r\n        uint256 id = _totalSupply();\r\n        _tokenIdTracker.increment();\r\n        _safeMint(_to, id);\r\n        emit CreateTheNumber8Club(id);\r\n    }\r\n\r\n    function salePrice(uint256 _count) public view returns (uint256) {\r\n        return PRICE.mul(_count);\r\n    }\r\n\r\n    function _baseURI() internal view virtual override returns (string memory) {\r\n        return baseTokenURI;\r\n    }\r\n\r\n    function setBaseURI(string memory baseURI) public onlyOwner {\r\n        baseTokenURI = baseURI;\r\n    }\r\n\r\n    function tokenURI(uint256 tokenId)\r\n        public\r\n        view\r\n        virtual\r\n        override\r\n        returns (string memory)\r\n    {\r\n        require(\r\n            _exists(tokenId),\r\n            \"ERC721Metadata: URI query for nonexistent token\"\r\n        );\r\n\r\n        uint256 metaId = tokenId;\r\n        string memory uriSuffix = \".json\";\r\n        string memory currentBaseURI = _baseURI();\r\n        return\r\n            bytes(currentBaseURI).length > 0\r\n                ? string(\r\n                    abi.encodePacked(\r\n                        currentBaseURI,\r\n                        uint2str(metaId),\r\n                        uriSuffix\r\n                    )\r\n                )\r\n                : \"\";\r\n    }\r\n\r\n    function walletOfOwner(address _owner)\r\n        external\r\n        view\r\n        returns (uint256[] memory)\r\n    {\r\n        uint256 tokenCount = balanceOf(_owner);\r\n\r\n        uint256[] memory tokensId = new uint256[](tokenCount);\r\n        for (uint256 i = 0; i < tokenCount; i++) {\r\n            tokensId[i] = tokenOfOwnerByIndex(_owner, i);\r\n        }\r\n\r\n        return tokensId;\r\n    }\r\n\r\n    function pauseMinting() external onlyOwner {\r\n        isPaused = true;\r\n    }\r\n\r\n    function resumeMinting() external onlyOwner {\r\n        isPaused = false;\r\n    }\r\n\r\n    function setSalePrice(uint256 _price) external onlyOwner {\r\n        PRICE = _price;\r\n    }\r\n\r\n    function setReserveAtATime(uint256 _count) public onlyOwner {\r\n        _reserveAtATime = _count;\r\n    }\r\n\r\n    function setMaxReserveCount(uint256 _newCount) external onlyOwner {\r\n        MAX_RESERVE_COUNT = _newCount;\r\n    }\r\n\r\n    function withdrawAll() external onlyOwner {\r\n        uint256 balance = address(this).balance;\r\n        require(balance > 0);\r\n        _withdraw(owner(), balance);\r\n    }\r\n\r\n    function _withdraw(address _address, uint256 _amount) private {\r\n        payable(_address).transfer(_amount);\r\n    }\r\n\r\n    function uint2str(uint256 _i)\r\n        internal\r\n        pure\r\n        returns (string memory _uintAsString)\r\n    {\r\n        if (_i == 0) {\r\n            return \"0\";\r\n        }\r\n        uint256 j = _i;\r\n        uint256 len;\r\n        while (j != 0) {\r\n            len++;\r\n            j /= 10;\r\n        }\r\n        bytes memory bstr = new bytes(len);\r\n        uint256 k = len;\r\n        while (_i != 0) {\r\n            k = k - 1;\r\n            uint8 temp = (48 + uint8(_i - (_i / 10) * 10));\r\n            bytes1 b1 = bytes1(temp);\r\n            bstr[k] = b1;\r\n            _i /= 10;\r\n        }\r\n        return string(bstr);\r\n    }\r\n}\r\n",
  "sourcePath": "C:\\git\\freelance\\tokens\\contracts\\The8Club.sol",
  "compiler": {
    "name": "solc",
    "version": "0.8.10+commit.fc410830.Emscripten.clang"
  },
  "schemaVersion": "3.4.3",
  "updatedAt": "2022-03-20T16:34:56.080Z",
  "devdoc": {
    "kind": "dev",
    "methods": {
      "tokenByIndex(uint256)": {
        "details": "Returns a token ID at a given `index` of all the tokens stored by the contract. Use along with {totalSupply} to enumerate all tokens."
      },
      "tokenOfOwnerByIndex(address,uint256)": {
        "details": "Returns a token ID owned by `owner` at a given `index` of its token list. Use along with {balanceOf} to enumerate all of ``owner``'s tokens."
      },
      "totalSupply()": {
        "details": "Returns the total amount of tokens stored by the contract."
      }
    },
    "version": 1
  },
  "userdoc": {
    "kind": "user",
    "methods": {},
    "version": 1
  }
}