{
  "contractName": "Cryptovale",
  "abi": [
    {
      "inputs": [
        {
          "internalType": "string",
          "name": "baseURI",
          "type": "string"
        },
        {
          "internalType": "address",
          "name": "wethAddress",
          "type": "address"
        }
      ],
      "stateMutability": "nonpayable",
      "type": "constructor"
    },
    {
      "anonymous": false,
      "inputs": [
        {
          "indexed": true,
          "internalType": "address",
          "name": "owner",
          "type": "address"
        },
        {
          "indexed": true,
          "internalType": "address",
          "name": "approved",
          "type": "address"
        },
        {
          "indexed": true,
          "internalType": "uint256",
          "name": "tokenId",
          "type": "uint256"
        }
      ],
      "name": "Approval",
      "type": "event"
    },
    {
      "anonymous": false,
      "inputs": [
        {
          "indexed": true,
          "internalType": "address",
          "name": "owner",
          "type": "address"
        },
        {
          "indexed": true,
          "internalType": "address",
          "name": "operator",
          "type": "address"
        },
        {
          "indexed": false,
          "internalType": "bool",
          "name": "approved",
          "type": "bool"
        }
      ],
      "name": "ApprovalForAll",
      "type": "event"
    },
    {
      "anonymous": false,
      "inputs": [
        {
          "indexed": true,
          "internalType": "uint256",
          "name": "id",
          "type": "uint256"
        }
      ],
      "name": "CreateGirl",
      "type": "event"
    },
    {
      "anonymous": false,
      "inputs": [
        {
          "indexed": true,
          "internalType": "address",
          "name": "previousOwner",
          "type": "address"
        },
        {
          "indexed": true,
          "internalType": "address",
          "name": "newOwner",
          "type": "address"
        }
      ],
      "name": "OwnershipTransferred",
      "type": "event"
    },
    {
      "anonymous": false,
      "inputs": [
        {
          "indexed": true,
          "internalType": "address",
          "name": "from",
          "type": "address"
        },
        {
          "indexed": true,
          "internalType": "address",
          "name": "to",
          "type": "address"
        },
        {
          "indexed": true,
          "internalType": "uint256",
          "name": "tokenId",
          "type": "uint256"
        }
      ],
      "name": "Transfer",
      "type": "event"
    },
    {
      "inputs": [],
      "name": "MAX_BY_MINT",
      "outputs": [
        {
          "internalType": "uint256",
          "name": "",
          "type": "uint256"
        }
      ],
      "stateMutability": "view",
      "type": "function",
      "constant": true
    },
    {
      "inputs": [],
      "name": "MAX_ELEMENTS_OTHER",
      "outputs": [
        {
          "internalType": "uint256",
          "name": "",
          "type": "uint256"
        }
      ],
      "stateMutability": "view",
      "type": "function",
      "constant": true
    },
    {
      "inputs": [],
      "name": "MAX_ELEMENTS_OWNER",
      "outputs": [
        {
          "internalType": "uint256",
          "name": "",
          "type": "uint256"
        }
      ],
      "stateMutability": "view",
      "type": "function",
      "constant": true
    },
    {
      "inputs": [],
      "name": "MAX_PER_WALLET",
      "outputs": [
        {
          "internalType": "uint256",
          "name": "",
          "type": "uint256"
        }
      ],
      "stateMutability": "view",
      "type": "function",
      "constant": true
    },
    {
      "inputs": [],
      "name": "PRICE",
      "outputs": [
        {
          "internalType": "uint256",
          "name": "",
          "type": "uint256"
        }
      ],
      "stateMutability": "view",
      "type": "function",
      "constant": true
    },
    {
      "inputs": [],
      "name": "WETH",
      "outputs": [
        {
          "internalType": "contract IERC20",
          "name": "",
          "type": "address"
        }
      ],
      "stateMutability": "view",
      "type": "function",
      "constant": true
    },
    {
      "inputs": [
        {
          "internalType": "address",
          "name": "to",
          "type": "address"
        },
        {
          "internalType": "uint256",
          "name": "tokenId",
          "type": "uint256"
        }
      ],
      "name": "approve",
      "outputs": [],
      "stateMutability": "nonpayable",
      "type": "function"
    },
    {
      "inputs": [
        {
          "internalType": "address",
          "name": "owner",
          "type": "address"
        }
      ],
      "name": "balanceOf",
      "outputs": [
        {
          "internalType": "uint256",
          "name": "",
          "type": "uint256"
        }
      ],
      "stateMutability": "view",
      "type": "function",
      "constant": true
    },
    {
      "inputs": [],
      "name": "baseTokenURI",
      "outputs": [
        {
          "internalType": "string",
          "name": "",
          "type": "string"
        }
      ],
      "stateMutability": "view",
      "type": "function",
      "constant": true
    },
    {
      "inputs": [
        {
          "internalType": "uint256",
          "name": "tokenId",
          "type": "uint256"
        }
      ],
      "name": "getApproved",
      "outputs": [
        {
          "internalType": "address",
          "name": "",
          "type": "address"
        }
      ],
      "stateMutability": "view",
      "type": "function",
      "constant": true
    },
    {
      "inputs": [
        {
          "internalType": "address",
          "name": "owner",
          "type": "address"
        },
        {
          "internalType": "address",
          "name": "operator",
          "type": "address"
        }
      ],
      "name": "isApprovedForAll",
      "outputs": [
        {
          "internalType": "bool",
          "name": "",
          "type": "bool"
        }
      ],
      "stateMutability": "view",
      "type": "function",
      "constant": true
    },
    {
      "inputs": [],
      "name": "isPaused",
      "outputs": [
        {
          "internalType": "bool",
          "name": "",
          "type": "bool"
        }
      ],
      "stateMutability": "view",
      "type": "function",
      "constant": true
    },
    {
      "inputs": [],
      "name": "isSaleOpen",
      "outputs": [
        {
          "internalType": "bool",
          "name": "",
          "type": "bool"
        }
      ],
      "stateMutability": "view",
      "type": "function",
      "constant": true
    },
    {
      "inputs": [],
      "name": "name",
      "outputs": [
        {
          "internalType": "string",
          "name": "",
          "type": "string"
        }
      ],
      "stateMutability": "view",
      "type": "function",
      "constant": true
    },
    {
      "inputs": [],
      "name": "owner",
      "outputs": [
        {
          "internalType": "address",
          "name": "",
          "type": "address"
        }
      ],
      "stateMutability": "view",
      "type": "function",
      "constant": true
    },
    {
      "inputs": [
        {
          "internalType": "uint256",
          "name": "tokenId",
          "type": "uint256"
        }
      ],
      "name": "ownerOf",
      "outputs": [
        {
          "internalType": "address",
          "name": "",
          "type": "address"
        }
      ],
      "stateMutability": "view",
      "type": "function",
      "constant": true
    },
    {
      "inputs": [],
      "name": "renounceOwnership",
      "outputs": [],
      "stateMutability": "nonpayable",
      "type": "function"
    },
    {
      "inputs": [
        {
          "internalType": "address",
          "name": "from",
          "type": "address"
        },
        {
          "internalType": "address",
          "name": "to",
          "type": "address"
        },
        {
          "internalType": "uint256",
          "name": "tokenId",
          "type": "uint256"
        }
      ],
      "name": "safeTransferFrom",
      "outputs": [],
      "stateMutability": "nonpayable",
      "type": "function"
    },
    {
      "inputs": [
        {
          "internalType": "address",
          "name": "from",
          "type": "address"
        },
        {
          "internalType": "address",
          "name": "to",
          "type": "address"
        },
        {
          "internalType": "uint256",
          "name": "tokenId",
          "type": "uint256"
        },
        {
          "internalType": "bytes",
          "name": "_data",
          "type": "bytes"
        }
      ],
      "name": "safeTransferFrom",
      "outputs": [],
      "stateMutability": "nonpayable",
      "type": "function"
    },
    {
      "inputs": [
        {
          "internalType": "address",
          "name": "operator",
          "type": "address"
        },
        {
          "internalType": "bool",
          "name": "approved",
          "type": "bool"
        }
      ],
      "name": "setApprovalForAll",
      "outputs": [],
      "stateMutability": "nonpayable",
      "type": "function"
    },
    {
      "inputs": [
        {
          "internalType": "bytes4",
          "name": "interfaceId",
          "type": "bytes4"
        }
      ],
      "name": "supportsInterface",
      "outputs": [
        {
          "internalType": "bool",
          "name": "",
          "type": "bool"
        }
      ],
      "stateMutability": "view",
      "type": "function",
      "constant": true
    },
    {
      "inputs": [],
      "name": "symbol",
      "outputs": [
        {
          "internalType": "string",
          "name": "",
          "type": "string"
        }
      ],
      "stateMutability": "view",
      "type": "function",
      "constant": true
    },
    {
      "inputs": [],
      "name": "teamWallet",
      "outputs": [
        {
          "internalType": "address",
          "name": "",
          "type": "address"
        }
      ],
      "stateMutability": "view",
      "type": "function",
      "constant": true
    },
    {
      "inputs": [
        {
          "internalType": "uint256",
          "name": "index",
          "type": "uint256"
        }
      ],
      "name": "tokenByIndex",
      "outputs": [
        {
          "internalType": "uint256",
          "name": "",
          "type": "uint256"
        }
      ],
      "stateMutability": "view",
      "type": "function",
      "constant": true
    },
    {
      "inputs": [
        {
          "internalType": "address",
          "name": "owner",
          "type": "address"
        },
        {
          "internalType": "uint256",
          "name": "index",
          "type": "uint256"
        }
      ],
      "name": "tokenOfOwnerByIndex",
      "outputs": [
        {
          "internalType": "uint256",
          "name": "",
          "type": "uint256"
        }
      ],
      "stateMutability": "view",
      "type": "function",
      "constant": true
    },
    {
      "inputs": [],
      "name": "totalSupply",
      "outputs": [
        {
          "internalType": "uint256",
          "name": "",
          "type": "uint256"
        }
      ],
      "stateMutability": "view",
      "type": "function",
      "constant": true
    },
    {
      "inputs": [
        {
          "internalType": "address",
          "name": "from",
          "type": "address"
        },
        {
          "internalType": "address",
          "name": "to",
          "type": "address"
        },
        {
          "internalType": "uint256",
          "name": "tokenId",
          "type": "uint256"
        }
      ],
      "name": "transferFrom",
      "outputs": [],
      "stateMutability": "nonpayable",
      "type": "function"
    },
    {
      "inputs": [
        {
          "internalType": "address",
          "name": "newOwner",
          "type": "address"
        }
      ],
      "name": "transferOwnership",
      "outputs": [],
      "stateMutability": "nonpayable",
      "type": "function"
    },
    {
      "inputs": [],
      "name": "totalMint",
      "outputs": [
        {
          "internalType": "uint256",
          "name": "",
          "type": "uint256"
        }
      ],
      "stateMutability": "view",
      "type": "function",
      "constant": true
    },
    {
      "inputs": [
        {
          "internalType": "address",
          "name": "_to",
          "type": "address"
        },
        {
          "internalType": "uint256",
          "name": "_count",
          "type": "uint256"
        }
      ],
      "name": "mint",
      "outputs": [],
      "stateMutability": "nonpayable",
      "type": "function"
    },
    {
      "inputs": [],
      "name": "pauseSale",
      "outputs": [],
      "stateMutability": "nonpayable",
      "type": "function"
    },
    {
      "inputs": [],
      "name": "resumeSale",
      "outputs": [],
      "stateMutability": "nonpayable",
      "type": "function"
    },
    {
      "inputs": [
        {
          "internalType": "string",
          "name": "baseURI",
          "type": "string"
        }
      ],
      "name": "setBaseURI",
      "outputs": [],
      "stateMutability": "nonpayable",
      "type": "function"
    },
    {
      "inputs": [],
      "name": "setSaleOpen",
      "outputs": [],
      "stateMutability": "nonpayable",
      "type": "function"
    },
    {
      "inputs": [
        {
          "internalType": "address",
          "name": "wallet",
          "type": "address"
        }
      ],
      "name": "setTeamWallet",
      "outputs": [],
      "stateMutability": "nonpayable",
      "type": "function"
    },
    {
      "inputs": [
        {
          "internalType": "uint256",
          "name": "_count",
          "type": "uint256"
        }
      ],
      "name": "price",
      "outputs": [
        {
          "internalType": "uint256",
          "name": "",
          "type": "uint256"
        }
      ],
      "stateMutability": "pure",
      "type": "function",
      "constant": true
    },
    {
      "inputs": [
        {
          "internalType": "uint256",
          "name": "tokenId",
          "type": "uint256"
        }
      ],
      "name": "tokenURI",
      "outputs": [
        {
          "internalType": "string",
          "name": "",
          "type": "string"
        }
      ],
      "stateMutability": "view",
      "type": "function",
      "constant": true
    },
    {
      "inputs": [
        {
          "internalType": "address",
          "name": "_owner",
          "type": "address"
        }
      ],
      "name": "walletOfOwner",
      "outputs": [
        {
          "internalType": "uint256[]",
          "name": "",
          "type": "uint256[]"
        }
      ],
      "stateMutability": "view",
      "type": "function",
      "constant": true
    }
  ],
  "bytecode": "0x60806040526000600c60006101000a81548160ff0219169083151502179055506000600c60016101000a81548160ff02191690831515021790555073c07650c5b462626fd41e0cb4627fdfcd1e7c4904600d60006101000a81548173ffffffffffffffffffffffffffffffffffffffff021916908373ffffffffffffffffffffffffffffffffffffffff1602179055503480156200009c57600080fd5b5060405162004ece38038062004ece8339818101604052810190620000c2919062000631565b6040518060400160405280600a81526020017f43727970746f76616c65000000000000000000000000000000000000000000008152506040518060400160405280600a81526020017f43525950544f56414c45000000000000000000000000000000000000000000008152508160009080519060200190620001469291906200037f565b5080600190805190602001906200015f9291906200037f565b5050506200018262000176620001dc60201b60201c565b620001e460201b60201c565b80600c60026101000a81548173ffffffffffffffffffffffffffffffffffffffff021916908373ffffffffffffffffffffffffffffffffffffffff160217905550620001d482620002aa60201b60201c565b50506200077f565b600033905090565b6000600a60009054906101000a900473ffffffffffffffffffffffffffffffffffffffff16905081600a60006101000a81548173ffffffffffffffffffffffffffffffffffffffff021916908373ffffffffffffffffffffffffffffffffffffffff1602179055508173ffffffffffffffffffffffffffffffffffffffff168173ffffffffffffffffffffffffffffffffffffffff167f8be0079c531659141344cd1fd0a4f28419497f9722a3daafe3b4186f6b6457e060405160405180910390a35050565b620002ba620001dc60201b60201c565b73ffffffffffffffffffffffffffffffffffffffff16620002e06200035560201b60201c565b73ffffffffffffffffffffffffffffffffffffffff161462000339576040517f08c379a00000000000000000000000000000000000000000000000000000000081526004016200033090620006f8565b60405180910390fd5b80600e9080519060200190620003519291906200037f565b5050565b6000600a60009054906101000a900473ffffffffffffffffffffffffffffffffffffffff16905090565b8280546200038d9062000749565b90600052602060002090601f016020900481019282620003b15760008555620003fd565b82601f10620003cc57805160ff1916838001178555620003fd565b82800160010185558215620003fd579182015b82811115620003fc578251825591602001919060010190620003df565b5b5090506200040c919062000410565b5090565b5b808211156200042b57600081600090555060010162000411565b5090565b6000604051905090565b600080fd5b600080fd5b600080fd5b600080fd5b6000601f19601f8301169050919050565b7f4e487b7100000000000000000000000000000000000000000000000000000000600052604160045260246000fd5b62000498826200044d565b810181811067ffffffffffffffff82111715620004ba57620004b96200045e565b5b80604052505050565b6000620004cf6200042f565b9050620004dd82826200048d565b919050565b600067ffffffffffffffff8211156200050057620004ff6200045e565b5b6200050b826200044d565b9050602081019050919050565b60005b83811015620005385780820151818401526020810190506200051b565b8381111562000548576000848401525b50505050565b6000620005656200055f84620004e2565b620004c3565b90508281526020810184848401111562000584576200058362000448565b5b6200059184828562000518565b509392505050565b600082601f830112620005b157620005b062000443565b5b8151620005c38482602086016200054e565b91505092915050565b600073ffffffffffffffffffffffffffffffffffffffff82169050919050565b6000620005f982620005cc565b9050919050565b6200060b81620005ec565b81146200061757600080fd5b50565b6000815190506200062b8162000600565b92915050565b600080604083850312156200064b576200064a62000439565b5b600083015167ffffffffffffffff8111156200066c576200066b6200043e565b5b6200067a8582860162000599565b92505060206200068d858286016200061a565b9150509250929050565b600082825260208201905092915050565b7f4f776e61626c653a2063616c6c6572206973206e6f7420746865206f776e6572600082015250565b6000620006e060208362000697565b9150620006ed82620006a8565b602082019050919050565b600060208201905081810360008301526200071381620006d1565b9050919050565b7f4e487b7100000000000000000000000000000000000000000000000000000000600052602260045260246000fd5b600060028204905060018216806200076257607f821691505b602082108114156200077957620007786200071a565b5b50919050565b61473f806200078f6000396000f3fe608060405234801561001057600080fd5b50600436106102325760003560e01c806355367ba9116101305780638da5cb5b116100b8578063b88d4fde1161007c578063b88d4fde14610647578063c87b56dd14610663578063d547cfb714610693578063e985e9c5146106b1578063f2fde38b146106e157610232565b80638da5cb5b146105b357806395d89b41146105d1578063a22cb465146105ef578063ad5c46481461060b578063b187bd261461062957610232565b80636352211e116100ff5780636352211e1461050d57806370a082311461053d578063715018a61461056d5780638ad5de28146105775780638d859f3e1461059557610232565b806355367ba9146104ab57806355f804b3146104b557806359927044146104d157806359a7715a146104ef57610232565b806323b872dd116101be57806333e364cb1161018257806333e364cb1461040957806340c10f191461041357806342842e0e1461042f578063438b63001461044b5780634f6ccce71461047b57610232565b806323b872dd1461035157806326a49e371461036d5780632ebc19ea1461039d5780632f745c59146103bb5780633077f9b6146103eb57610232565b80630f2cdd6c116102055780630f2cdd6c146102d15780631525ff7d146102ef57806318160ddd1461030b57806319dad680146103295780631a0813301461033357610232565b806301ffc9a71461023757806306fdde0314610267578063081812fc14610285578063095ea7b3146102b5575b600080fd5b610251600480360381019061024c9190612e70565b6106fd565b60405161025e9190612eb8565b60405180910390f35b61026f610777565b60405161027c9190612f6c565b60405180910390f35b61029f600480360381019061029a9190612fc4565b610809565b6040516102ac9190613032565b60405180910390f35b6102cf60048036038101906102ca9190613079565b61088e565b005b6102d96109a6565b6040516102e691906130c8565b60405180910390f35b610309600480360381019061030491906130e3565b6109ab565b005b610313610a6b565b60405161032091906130c8565b60405180910390f35b610331610a78565b005b61033b610b11565b6040516103489190612eb8565b60405180910390f35b61036b60048036038101906103669190613110565b610b24565b005b61038760048036038101906103829190612fc4565b610b84565b60405161039491906130c8565b60405180910390f35b6103a5610ba7565b6040516103b291906130c8565b60405180910390f35b6103d560048036038101906103d09190613079565b610bad565b6040516103e291906130c8565b60405180910390f35b6103f3610c52565b60405161040091906130c8565b60405180910390f35b610411610c58565b005b61042d60048036038101906104289190613079565b610cf1565b005b61044960048036038101906104449190613110565b611147565b005b610465600480360381019061046091906130e3565b611167565b6040516104729190613221565b60405180910390f35b61049560048036038101906104909190612fc4565b611215565b6040516104a291906130c8565b60405180910390f35b6104b3611286565b005b6104cf60048036038101906104ca9190613378565b61131f565b005b6104d96113b5565b6040516104e69190613032565b60405180910390f35b6104f76113db565b60405161050491906130c8565b60405180910390f35b61052760048036038101906105229190612fc4565b6113ea565b6040516105349190613032565b60405180910390f35b610557600480360381019061055291906130e3565b61149c565b60405161056491906130c8565b60405180910390f35b610575611554565b005b61057f6115dc565b60405161058c91906130c8565b60405180910390f35b61059d6115e1565b6040516105aa91906130c8565b60405180910390f35b6105bb6115ec565b6040516105c89190613032565b60405180910390f35b6105d9611616565b6040516105e69190612f6c565b60405180910390f35b610609600480360381019061060491906133ed565b6116a8565b005b610613611829565b604051610620919061348c565b60405180910390f35b61063161184f565b60405161063e9190612eb8565b60405180910390f35b610661600480360381019061065c9190613548565b611862565b005b61067d60048036038101906106789190612fc4565b6118c4565b60405161068a9190612f6c565b60405180910390f35b61069b6119ba565b6040516106a89190612f6c565b60405180910390f35b6106cb60048036038101906106c691906135cb565b611a48565b6040516106d89190612eb8565b60405180910390f35b6106fb60048036038101906106f691906130e3565b611adc565b005b60007f780e9d63000000000000000000000000000000000000000000000000000000007bffffffffffffffffffffffffffffffffffffffffffffffffffffffff1916827bffffffffffffffffffffffffffffffffffffffffffffffffffffffff19161480610770575061076f82611bd4565b5b9050919050565b6060600080546107869061363a565b80601f01602080910402602001604051908101604052809291908181526020018280546107b29061363a565b80156107ff5780601f106107d4576101008083540402835291602001916107ff565b820191906000526020600020905b8154815290600101906020018083116107e257829003601f168201915b5050505050905090565b600061081482611cb6565b610853576040517f08c379a000000000000000000000000000000000000000000000000000000000815260040161084a906136de565b60405180910390fd5b6004600083815260200190815260200160002060009054906101000a900473ffffffffffffffffffffffffffffffffffffffff169050919050565b6000610899826113ea565b90508073ffffffffffffffffffffffffffffffffffffffff168373ffffffffffffffffffffffffffffffffffffffff16141561090a576040517f08c379a000000000000000000000000000000000000000000000000000000000815260040161090190613770565b60405180910390fd5b8073ffffffffffffffffffffffffffffffffffffffff16610929611d22565b73ffffffffffffffffffffffffffffffffffffffff161480610958575061095781610952611d22565b611a48565b5b610997576040517f08c379a000000000000000000000000000000000000000000000000000000000815260040161098e90613802565b60405180910390fd5b6109a18383611d2a565b505050565b600a81565b6109b3611d22565b73ffffffffffffffffffffffffffffffffffffffff166109d16115ec565b73ffffffffffffffffffffffffffffffffffffffff1614610a27576040517f08c379a0000000000000000000000000000000000000000000000000000000008152600401610a1e9061386e565b60405180910390fd5b80600d60006101000a81548173ffffffffffffffffffffffffffffffffffffffff021916908373ffffffffffffffffffffffffffffffffffffffff16021790555050565b6000600880549050905090565b610a80611d22565b73ffffffffffffffffffffffffffffffffffffffff16610a9e6115ec565b73ffffffffffffffffffffffffffffffffffffffff1614610af4576040517f08c379a0000000000000000000000000000000000000000000000000000000008152600401610aeb9061386e565b60405180910390fd5b6001600c60006101000a81548160ff021916908315150217905550565b600c60009054906101000a900460ff1681565b610b35610b2f611d22565b82611de3565b610b74576040517f08c379a0000000000000000000000000000000000000000000000000000000008152600401610b6b90613900565b60405180910390fd5b610b7f838383611ec1565b505050565b6000610ba082668e1bc9bf04000061211d90919063ffffffff16565b9050919050565b6110f881565b6000610bb88361149c565b8210610bf9576040517f08c379a0000000000000000000000000000000000000000000000000000000008152600401610bf090613992565b60405180910390fd5b600660008473ffffffffffffffffffffffffffffffffffffffff1673ffffffffffffffffffffffffffffffffffffffff168152602001908152602001600020600083815260200190815260200160002054905092915050565b61115c81565b610c60611d22565b73ffffffffffffffffffffffffffffffffffffffff16610c7e6115ec565b73ffffffffffffffffffffffffffffffffffffffff1614610cd4576040517f08c379a0000000000000000000000000000000000000000000000000000000008152600401610ccb9061386e565b60405180910390fd5b6000600c60016101000a81548160ff021916908315150217905550565b610cf96115ec565b73ffffffffffffffffffffffffffffffffffffffff16610d17611d22565b73ffffffffffffffffffffffffffffffffffffffff1614610d8257600c60009054906101000a900460ff16610d81576040517f08c379a0000000000000000000000000000000000000000000000000000000008152600401610d78906139fe565b60405180910390fd5b5b6000610d8c612133565b9050610d966115ec565b73ffffffffffffffffffffffffffffffffffffffff16610db4611d22565b73ffffffffffffffffffffffffffffffffffffffff16146110c9576110f88282610dde9190613a4d565b1115610e1f576040517f08c379a0000000000000000000000000000000000000000000000000000000008152600401610e1690613aef565b60405180910390fd5b600c60019054906101000a900460ff1615610e6f576040517f08c379a0000000000000000000000000000000000000000000000000000000008152600401610e6690613b5b565b60405180910390fd5b6005821115610eb3576040517f08c379a0000000000000000000000000000000000000000000000000000000008152600401610eaa90613bc7565b60405180910390fd5b600a82610ec6610ec1611d22565b61149c565b610ed09190613a4d565b1115610f11576040517f08c379a0000000000000000000000000000000000000000000000000000000008152600401610f0890613c33565b60405180910390fd5b610f1a82610b84565b600c60029054906101000a900473ffffffffffffffffffffffffffffffffffffffff1673ffffffffffffffffffffffffffffffffffffffff166370a08231336040518263ffffffff1660e01b8152600401610f759190613032565b602060405180830381865afa158015610f92573d6000803e3d6000fd5b505050506040513d601f19601f82011682018060405250810190610fb69190613c68565b1015610ff7576040517f08c379a0000000000000000000000000000000000000000000000000000000008152600401610fee90613ce1565b60405180910390fd5b600c60029054906101000a900473ffffffffffffffffffffffffffffffffffffffff1673ffffffffffffffffffffffffffffffffffffffff166323b872dd33600d60009054906101000a900473ffffffffffffffffffffffffffffffffffffffff1661106286610b84565b6040518463ffffffff1660e01b815260040161108093929190613d01565b6020604051808303816000875af115801561109f573d6000803e3d6000fd5b505050506040513d601f19601f820116820180604052508101906110c39190613d4d565b5061111a565b61115c82826110d89190613a4d565b1115611119576040517f08c379a000000000000000000000000000000000000000000000000000000000815260040161111090613aef565b60405180910390fd5b5b60005b828110156111415761112e84612144565b808061113990613d7a565b91505061111d565b50505050565b61116283838360405180602001604052806000815250611862565b505050565b606060006111748361149c565b905060008167ffffffffffffffff8111156111925761119161324d565b5b6040519080825280602002602001820160405280156111c05781602001602082028036833780820191505090505b50905060005b8281101561120a576111d88582610bad565b8282815181106111eb576111ea613dc3565b5b602002602001018181525050808061120290613d7a565b9150506111c6565b508092505050919050565b600061121f610a6b565b8210611260576040517f08c379a000000000000000000000000000000000000000000000000000000000815260040161125790613e64565b60405180910390fd5b6008828154811061127457611273613dc3565b5b90600052602060002001549050919050565b61128e611d22565b73ffffffffffffffffffffffffffffffffffffffff166112ac6115ec565b73ffffffffffffffffffffffffffffffffffffffff1614611302576040517f08c379a00000000000000000000000000000000000000000000000000000000081526004016112f99061386e565b60405180910390fd5b6001600c60016101000a81548160ff021916908315150217905550565b611327611d22565b73ffffffffffffffffffffffffffffffffffffffff166113456115ec565b73ffffffffffffffffffffffffffffffffffffffff161461139b576040517f08c379a00000000000000000000000000000000000000000000000000000000081526004016113929061386e565b60405180910390fd5b80600e90805190602001906113b1929190612d61565b5050565b600d60009054906101000a900473ffffffffffffffffffffffffffffffffffffffff1681565b60006113e5612133565b905090565b6000806002600084815260200190815260200160002060009054906101000a900473ffffffffffffffffffffffffffffffffffffffff169050600073ffffffffffffffffffffffffffffffffffffffff168173ffffffffffffffffffffffffffffffffffffffff161415611493576040517f08c379a000000000000000000000000000000000000000000000000000000000815260040161148a90613ef6565b60405180910390fd5b80915050919050565b60008073ffffffffffffffffffffffffffffffffffffffff168273ffffffffffffffffffffffffffffffffffffffff16141561150d576040517f08c379a000000000000000000000000000000000000000000000000000000000815260040161150490613f88565b60405180910390fd5b600360008373ffffffffffffffffffffffffffffffffffffffff1673ffffffffffffffffffffffffffffffffffffffff168152602001908152602001600020549050919050565b61155c611d22565b73ffffffffffffffffffffffffffffffffffffffff1661157a6115ec565b73ffffffffffffffffffffffffffffffffffffffff16146115d0576040517f08c379a00000000000000000000000000000000000000000000000000000000081526004016115c79061386e565b60405180910390fd5b6115da6000612195565b565b600581565b668e1bc9bf04000081565b6000600a60009054906101000a900473ffffffffffffffffffffffffffffffffffffffff16905090565b6060600180546116259061363a565b80601f01602080910402602001604051908101604052809291908181526020018280546116519061363a565b801561169e5780601f106116735761010080835404028352916020019161169e565b820191906000526020600020905b81548152906001019060200180831161168157829003601f168201915b5050505050905090565b6116b0611d22565b73ffffffffffffffffffffffffffffffffffffffff168273ffffffffffffffffffffffffffffffffffffffff16141561171e576040517f08c379a000000000000000000000000000000000000000000000000000000000815260040161171590613ff4565b60405180910390fd5b806005600061172b611d22565b73ffffffffffffffffffffffffffffffffffffffff1673ffffffffffffffffffffffffffffffffffffffff16815260200190815260200160002060008473ffffffffffffffffffffffffffffffffffffffff1673ffffffffffffffffffffffffffffffffffffffff16815260200190815260200160002060006101000a81548160ff0219169083151502179055508173ffffffffffffffffffffffffffffffffffffffff166117d8611d22565b73ffffffffffffffffffffffffffffffffffffffff167f17307eab39ab6107e8899845ad3d59bd9653f200f220920489ca2b5937696c318360405161181d9190612eb8565b60405180910390a35050565b600c60029054906101000a900473ffffffffffffffffffffffffffffffffffffffff1681565b600c60019054906101000a900460ff1681565b61187361186d611d22565b83611de3565b6118b2576040517f08c379a00000000000000000000000000000000000000000000000000000000081526004016118a990613900565b60405180910390fd5b6118be8484848461225b565b50505050565b60606118cf82611cb6565b61190e576040517f08c379a000000000000000000000000000000000000000000000000000000000815260040161190590614086565b60405180910390fd5b600060018361191d9190613a4d565b905060006040518060400160405280600581526020017f2e6a736f6e000000000000000000000000000000000000000000000000000000815250905060006119636122b7565b9050600081511161198357604051806020016040528060008152506119b0565b8061198d84612349565b836040516020016119a0939291906140e2565b6040516020818303038152906040525b9350505050919050565b600e80546119c79061363a565b80601f01602080910402602001604051908101604052809291908181526020018280546119f39061363a565b8015611a405780601f10611a1557610100808354040283529160200191611a40565b820191906000526020600020905b815481529060010190602001808311611a2357829003601f168201915b505050505081565b6000600560008473ffffffffffffffffffffffffffffffffffffffff1673ffffffffffffffffffffffffffffffffffffffff16815260200190815260200160002060008373ffffffffffffffffffffffffffffffffffffffff1673ffffffffffffffffffffffffffffffffffffffff16815260200190815260200160002060009054906101000a900460ff16905092915050565b611ae4611d22565b73ffffffffffffffffffffffffffffffffffffffff16611b026115ec565b73ffffffffffffffffffffffffffffffffffffffff1614611b58576040517f08c379a0000000000000000000000000000000000000000000000000000000008152600401611b4f9061386e565b60405180910390fd5b600073ffffffffffffffffffffffffffffffffffffffff168173ffffffffffffffffffffffffffffffffffffffff161415611bc8576040517f08c379a0000000000000000000000000000000000000000000000000000000008152600401611bbf90614185565b60405180910390fd5b611bd181612195565b50565b60007f80ac58cd000000000000000000000000000000000000000000000000000000007bffffffffffffffffffffffffffffffffffffffffffffffffffffffff1916827bffffffffffffffffffffffffffffffffffffffffffffffffffffffff19161480611c9f57507f5b5e139f000000000000000000000000000000000000000000000000000000007bffffffffffffffffffffffffffffffffffffffffffffffffffffffff1916827bffffffffffffffffffffffffffffffffffffffffffffffffffffffff1916145b80611caf5750611cae826124d2565b5b9050919050565b60008073ffffffffffffffffffffffffffffffffffffffff166002600084815260200190815260200160002060009054906101000a900473ffffffffffffffffffffffffffffffffffffffff1673ffffffffffffffffffffffffffffffffffffffff1614159050919050565b600033905090565b816004600083815260200190815260200160002060006101000a81548173ffffffffffffffffffffffffffffffffffffffff021916908373ffffffffffffffffffffffffffffffffffffffff160217905550808273ffffffffffffffffffffffffffffffffffffffff16611d9d836113ea565b73ffffffffffffffffffffffffffffffffffffffff167f8c5be1e5ebec7d5bd14f71427d1e84f3dd0314c0f7b2291e5b200ac8c7c3b92560405160405180910390a45050565b6000611dee82611cb6565b611e2d576040517f08c379a0000000000000000000000000000000000000000000000000000000008152600401611e2490614217565b60405180910390fd5b6000611e38836113ea565b90508073ffffffffffffffffffffffffffffffffffffffff168473ffffffffffffffffffffffffffffffffffffffff161480611ea757508373ffffffffffffffffffffffffffffffffffffffff16611e8f84610809565b73ffffffffffffffffffffffffffffffffffffffff16145b80611eb85750611eb78185611a48565b5b91505092915050565b8273ffffffffffffffffffffffffffffffffffffffff16611ee1826113ea565b73ffffffffffffffffffffffffffffffffffffffff1614611f37576040517f08c379a0000000000000000000000000000000000000000000000000000000008152600401611f2e906142a9565b60405180910390fd5b600073ffffffffffffffffffffffffffffffffffffffff168273ffffffffffffffffffffffffffffffffffffffff161415611fa7576040517f08c379a0000000000000000000000000000000000000000000000000000000008152600401611f9e9061433b565b60405180910390fd5b611fb283838361253c565b611fbd600082611d2a565b6001600360008573ffffffffffffffffffffffffffffffffffffffff1673ffffffffffffffffffffffffffffffffffffffff168152602001908152602001600020600082825461200d919061435b565b925050819055506001600360008473ffffffffffffffffffffffffffffffffffffffff1673ffffffffffffffffffffffffffffffffffffffff16815260200190815260200160002060008282546120649190613a4d565b92505081905550816002600083815260200190815260200160002060006101000a81548173ffffffffffffffffffffffffffffffffffffffff021916908373ffffffffffffffffffffffffffffffffffffffff160217905550808273ffffffffffffffffffffffffffffffffffffffff168473ffffffffffffffffffffffffffffffffffffffff167fddf252ad1be2c89b69c2b068fc378daa952ba7f163c4a11628f55a4df523b3ef60405160405180910390a4505050565b6000818361212b919061438f565b905092915050565b600061213f600b612650565b905090565b600061214e612133565b905061215a600b61265e565b6121648282612674565b807fe23307845d654b0a7e347a1a9b0fc88a5780f9c6582b34127cd856e6040c315d60405160405180910390a25050565b6000600a60009054906101000a900473ffffffffffffffffffffffffffffffffffffffff16905081600a60006101000a81548173ffffffffffffffffffffffffffffffffffffffff021916908373ffffffffffffffffffffffffffffffffffffffff1602179055508173ffffffffffffffffffffffffffffffffffffffff168173ffffffffffffffffffffffffffffffffffffffff167f8be0079c531659141344cd1fd0a4f28419497f9722a3daafe3b4186f6b6457e060405160405180910390a35050565b612266848484611ec1565b61227284848484612692565b6122b1576040517f08c379a00000000000000000000000000000000000000000000000000000000081526004016122a89061445b565b60405180910390fd5b50505050565b6060600e80546122c69061363a565b80601f01602080910402602001604051908101604052809291908181526020018280546122f29061363a565b801561233f5780601f106123145761010080835404028352916020019161233f565b820191906000526020600020905b81548152906001019060200180831161232257829003601f168201915b5050505050905090565b60606000821415612391576040518060400160405280600181526020017f300000000000000000000000000000000000000000000000000000000000000081525090506124cd565b600082905060005b600082146123c35780806123ac90613d7a565b915050600a826123bc91906144aa565b9150612399565b60008167ffffffffffffffff8111156123df576123de61324d565b5b6040519080825280601f01601f1916602001820160405280156124115781602001600182028036833780820191505090505b50905060008290505b600086146124c55760018161242f919061435b565b90506000600a808861244191906144aa565b61244b919061438f565b87612456919061435b565b603061246291906144e8565b905060008160f81b9050808484815181106124805761247f613dc3565b5b60200101907effffffffffffffffffffffffffffffffffffffffffffffffffffffffffffff1916908160001a905350600a886124bc91906144aa565b9750505061241a565b819450505050505b919050565b60007f01ffc9a7000000000000000000000000000000000000000000000000000000007bffffffffffffffffffffffffffffffffffffffffffffffffffffffff1916827bffffffffffffffffffffffffffffffffffffffffffffffffffffffff1916149050919050565b61254783838361281a565b600073ffffffffffffffffffffffffffffffffffffffff168373ffffffffffffffffffffffffffffffffffffffff16141561258a576125858161281f565b6125c9565b8173ffffffffffffffffffffffffffffffffffffffff168373ffffffffffffffffffffffffffffffffffffffff16146125c8576125c78382612868565b5b5b600073ffffffffffffffffffffffffffffffffffffffff168273ffffffffffffffffffffffffffffffffffffffff16141561260c57612607816129d5565b61264b565b8273ffffffffffffffffffffffffffffffffffffffff168273ffffffffffffffffffffffffffffffffffffffff161461264a576126498282612aa6565b5b5b505050565b600081600001549050919050565b6001816000016000828254019250508190555050565b61268e828260405180602001604052806000815250612b25565b5050565b60006126b38473ffffffffffffffffffffffffffffffffffffffff16612b80565b1561280d578373ffffffffffffffffffffffffffffffffffffffff1663150b7a026126dc611d22565b8786866040518563ffffffff1660e01b81526004016126fe9493929190614574565b6020604051808303816000875af192505050801561273a57506040513d601f19601f8201168201806040525081019061273791906145d5565b60015b6127bd573d806000811461276a576040519150601f19603f3d011682016040523d82523d6000602084013e61276f565b606091505b506000815114156127b5576040517f08c379a00000000000000000000000000000000000000000000000000000000081526004016127ac9061445b565b60405180910390fd5b805181602001fd5b63150b7a0260e01b7bffffffffffffffffffffffffffffffffffffffffffffffffffffffff1916817bffffffffffffffffffffffffffffffffffffffffffffffffffffffff191614915050612812565b600190505b949350505050565b505050565b6008805490506009600083815260200190815260200160002081905550600881908060018154018082558091505060019003906000526020600020016000909190919091505550565b600060016128758461149c565b61287f919061435b565b9050600060076000848152602001908152602001600020549050818114612964576000600660008673ffffffffffffffffffffffffffffffffffffffff1673ffffffffffffffffffffffffffffffffffffffff168152602001908152602001600020600084815260200190815260200160002054905080600660008773ffffffffffffffffffffffffffffffffffffffff1673ffffffffffffffffffffffffffffffffffffffff168152602001908152602001600020600084815260200190815260200160002081905550816007600083815260200190815260200160002081905550505b6007600084815260200190815260200160002060009055600660008573ffffffffffffffffffffffffffffffffffffffff1673ffffffffffffffffffffffffffffffffffffffff16815260200190815260200160002060008381526020019081526020016000206000905550505050565b600060016008805490506129e9919061435b565b9050600060096000848152602001908152602001600020549050600060088381548110612a1957612a18613dc3565b5b906000526020600020015490508060088381548110612a3b57612a3a613dc3565b5b906000526020600020018190555081600960008381526020019081526020016000208190555060096000858152602001908152602001600020600090556008805480612a8a57612a89614602565b5b6001900381819060005260206000200160009055905550505050565b6000612ab18361149c565b905081600660008573ffffffffffffffffffffffffffffffffffffffff1673ffffffffffffffffffffffffffffffffffffffff168152602001908152602001600020600083815260200190815260200160002081905550806007600084815260200190815260200160002081905550505050565b612b2f8383612b93565b612b3c6000848484612692565b612b7b576040517f08c379a0000000000000000000000000000000000000000000000000000000008152600401612b729061445b565b60405180910390fd5b505050565b600080823b905060008111915050919050565b600073ffffffffffffffffffffffffffffffffffffffff168273ffffffffffffffffffffffffffffffffffffffff161415612c03576040517f08c379a0000000000000000000000000000000000000000000000000000000008152600401612bfa9061467d565b60405180910390fd5b612c0c81611cb6565b15612c4c576040517f08c379a0000000000000000000000000000000000000000000000000000000008152600401612c43906146e9565b60405180910390fd5b612c586000838361253c565b6001600360008473ffffffffffffffffffffffffffffffffffffffff1673ffffffffffffffffffffffffffffffffffffffff1681526020019081526020016000206000828254612ca89190613a4d565b92505081905550816002600083815260200190815260200160002060006101000a81548173ffffffffffffffffffffffffffffffffffffffff021916908373ffffffffffffffffffffffffffffffffffffffff160217905550808273ffffffffffffffffffffffffffffffffffffffff16600073ffffffffffffffffffffffffffffffffffffffff167fddf252ad1be2c89b69c2b068fc378daa952ba7f163c4a11628f55a4df523b3ef60405160405180910390a45050565b828054612d6d9061363a565b90600052602060002090601f016020900481019282612d8f5760008555612dd6565b82601f10612da857805160ff1916838001178555612dd6565b82800160010185558215612dd6579182015b82811115612dd5578251825591602001919060010190612dba565b5b509050612de39190612de7565b5090565b5b80821115612e00576000816000905550600101612de8565b5090565b6000604051905090565b600080fd5b600080fd5b60007fffffffff0000000000000000000000000000000000000000000000000000000082169050919050565b612e4d81612e18565b8114612e5857600080fd5b50565b600081359050612e6a81612e44565b92915050565b600060208284031215612e8657612e85612e0e565b5b6000612e9484828501612e5b565b91505092915050565b60008115159050919050565b612eb281612e9d565b82525050565b6000602082019050612ecd6000830184612ea9565b92915050565b600081519050919050565b600082825260208201905092915050565b60005b83811015612f0d578082015181840152602081019050612ef2565b83811115612f1c576000848401525b50505050565b6000601f19601f8301169050919050565b6000612f3e82612ed3565b612f488185612ede565b9350612f58818560208601612eef565b612f6181612f22565b840191505092915050565b60006020820190508181036000830152612f868184612f33565b905092915050565b6000819050919050565b612fa181612f8e565b8114612fac57600080fd5b50565b600081359050612fbe81612f98565b92915050565b600060208284031215612fda57612fd9612e0e565b5b6000612fe884828501612faf565b91505092915050565b600073ffffffffffffffffffffffffffffffffffffffff82169050919050565b600061301c82612ff1565b9050919050565b61302c81613011565b82525050565b60006020820190506130476000830184613023565b92915050565b61305681613011565b811461306157600080fd5b50565b6000813590506130738161304d565b92915050565b600080604083850312156130905761308f612e0e565b5b600061309e85828601613064565b92505060206130af85828601612faf565b9150509250929050565b6130c281612f8e565b82525050565b60006020820190506130dd60008301846130b9565b92915050565b6000602082840312156130f9576130f8612e0e565b5b600061310784828501613064565b91505092915050565b60008060006060848603121561312957613128612e0e565b5b600061313786828701613064565b935050602061314886828701613064565b925050604061315986828701612faf565b9150509250925092565b600081519050919050565b600082825260208201905092915050565b6000819050602082019050919050565b61319881612f8e565b82525050565b60006131aa838361318f565b60208301905092915050565b6000602082019050919050565b60006131ce82613163565b6131d8818561316e565b93506131e38361317f565b8060005b838110156132145781516131fb888261319e565b9750613206836131b6565b9250506001810190506131e7565b5085935050505092915050565b6000602082019050818103600083015261323b81846131c3565b905092915050565b600080fd5b600080fd5b7f4e487b7100000000000000000000000000000000000000000000000000000000600052604160045260246000fd5b61328582612f22565b810181811067ffffffffffffffff821117156132a4576132a361324d565b5b80604052505050565b60006132b7612e04565b90506132c3828261327c565b919050565b600067ffffffffffffffff8211156132e3576132e261324d565b5b6132ec82612f22565b9050602081019050919050565b82818337600083830152505050565b600061331b613316846132c8565b6132ad565b90508281526020810184848401111561333757613336613248565b5b6133428482856132f9565b509392505050565b600082601f83011261335f5761335e613243565b5b813561336f848260208601613308565b91505092915050565b60006020828403121561338e5761338d612e0e565b5b600082013567ffffffffffffffff8111156133ac576133ab612e13565b5b6133b88482850161334a565b91505092915050565b6133ca81612e9d565b81146133d557600080fd5b50565b6000813590506133e7816133c1565b92915050565b6000806040838503121561340457613403612e0e565b5b600061341285828601613064565b9250506020613423858286016133d8565b9150509250929050565b6000819050919050565b600061345261344d61344884612ff1565b61342d565b612ff1565b9050919050565b600061346482613437565b9050919050565b600061347682613459565b9050919050565b6134868161346b565b82525050565b60006020820190506134a1600083018461347d565b92915050565b600067ffffffffffffffff8211156134c2576134c161324d565b5b6134cb82612f22565b9050602081019050919050565b60006134eb6134e6846134a7565b6132ad565b90508281526020810184848401111561350757613506613248565b5b6135128482856132f9565b509392505050565b600082601f83011261352f5761352e613243565b5b813561353f8482602086016134d8565b91505092915050565b6000806000806080858703121561356257613561612e0e565b5b600061357087828801613064565b945050602061358187828801613064565b935050604061359287828801612faf565b925050606085013567ffffffffffffffff8111156135b3576135b2612e13565b5b6135bf8782880161351a565b91505092959194509250565b600080604083850312156135e2576135e1612e0e565b5b60006135f085828601613064565b925050602061360185828601613064565b9150509250929050565b7f4e487b7100000000000000000000000000000000000000000000000000000000600052602260045260246000fd5b6000600282049050600182168061365257607f821691505b602082108114156136665761366561360b565b5b50919050565b7f4552433732313a20617070726f76656420717565727920666f72206e6f6e657860008201527f697374656e7420746f6b656e0000000000000000000000000000000000000000602082015250565b60006136c8602c83612ede565b91506136d38261366c565b604082019050919050565b600060208201905081810360008301526136f7816136bb565b9050919050565b7f4552433732313a20617070726f76616c20746f2063757272656e74206f776e6560008201527f7200000000000000000000000000000000000000000000000000000000000000602082015250565b600061375a602183612ede565b9150613765826136fe565b604082019050919050565b600060208201905081810360008301526137898161374d565b9050919050565b7f4552433732313a20617070726f76652063616c6c6572206973206e6f74206f7760008201527f6e6572206e6f7220617070726f76656420666f7220616c6c0000000000000000602082015250565b60006137ec603883612ede565b91506137f782613790565b604082019050919050565b6000602082019050818103600083015261381b816137df565b9050919050565b7f4f776e61626c653a2063616c6c6572206973206e6f7420746865206f776e6572600082015250565b6000613858602083612ede565b915061386382613822565b602082019050919050565b600060208201905081810360008301526138878161384b565b9050919050565b7f4552433732313a207472616e736665722063616c6c6572206973206e6f74206f60008201527f776e6572206e6f7220617070726f766564000000000000000000000000000000602082015250565b60006138ea603183612ede565b91506138f58261388e565b604082019050919050565b60006020820190508181036000830152613919816138dd565b9050919050565b7f455243373231456e756d657261626c653a206f776e657220696e646578206f7560008201527f74206f6620626f756e6473000000000000000000000000000000000000000000602082015250565b600061397c602b83612ede565b915061398782613920565b604082019050919050565b600060208201905081810360008301526139ab8161396f565b9050919050565b7f53616c65206973206e6f74206f70656e00000000000000000000000000000000600082015250565b60006139e8601083612ede565b91506139f3826139b2565b602082019050919050565b60006020820190508181036000830152613a17816139db565b9050919050565b7f4e487b7100000000000000000000000000000000000000000000000000000000600052601160045260246000fd5b6000613a5882612f8e565b9150613a6383612f8e565b9250827fffffffffffffffffffffffffffffffffffffffffffffffffffffffffffffffff03821115613a9857613a97613a1e565b5b828201905092915050565b7f4d6178206c696d69740000000000000000000000000000000000000000000000600082015250565b6000613ad9600983612ede565b9150613ae482613aa3565b602082019050919050565b60006020820190508181036000830152613b0881613acc565b9050919050565b7f4d696e74696e67206973207061757365642e0000000000000000000000000000600082015250565b6000613b45601283612ede565b9150613b5082613b0f565b602082019050919050565b60006020820190508181036000830152613b7481613b38565b9050919050565b7f45786365656473206e756d626572000000000000000000000000000000000000600082015250565b6000613bb1600e83612ede565b9150613bbc82613b7b565b602082019050919050565b60006020820190508181036000830152613be081613ba4565b9050919050565b7f45786365656473206d617820616c6c6f776564207065722077616c6c65740000600082015250565b6000613c1d601e83612ede565b9150613c2882613be7565b602082019050919050565b60006020820190508181036000830152613c4c81613c10565b9050919050565b600081519050613c6281612f98565b92915050565b600060208284031215613c7e57613c7d612e0e565b5b6000613c8c84828501613c53565b91505092915050565b7f496e73756666696369656e742062616c616e6365000000000000000000000000600082015250565b6000613ccb601483612ede565b9150613cd682613c95565b602082019050919050565b60006020820190508181036000830152613cfa81613cbe565b9050919050565b6000606082019050613d166000830186613023565b613d236020830185613023565b613d3060408301846130b9565b949350505050565b600081519050613d47816133c1565b92915050565b600060208284031215613d6357613d62612e0e565b5b6000613d7184828501613d38565b91505092915050565b6000613d8582612f8e565b91507fffffffffffffffffffffffffffffffffffffffffffffffffffffffffffffffff821415613db857613db7613a1e565b5b600182019050919050565b7f4e487b7100000000000000000000000000000000000000000000000000000000600052603260045260246000fd5b7f455243373231456e756d657261626c653a20676c6f62616c20696e646578206f60008201527f7574206f6620626f756e64730000000000000000000000000000000000000000602082015250565b6000613e4e602c83612ede565b9150613e5982613df2565b604082019050919050565b60006020820190508181036000830152613e7d81613e41565b9050919050565b7f4552433732313a206f776e657220717565727920666f72206e6f6e657869737460008201527f656e7420746f6b656e0000000000000000000000000000000000000000000000602082015250565b6000613ee0602983612ede565b9150613eeb82613e84565b604082019050919050565b60006020820190508181036000830152613f0f81613ed3565b9050919050565b7f4552433732313a2062616c616e636520717565727920666f7220746865207a6560008201527f726f206164647265737300000000000000000000000000000000000000000000602082015250565b6000613f72602a83612ede565b9150613f7d82613f16565b604082019050919050565b60006020820190508181036000830152613fa181613f65565b9050919050565b7f4552433732313a20617070726f766520746f2063616c6c657200000000000000600082015250565b6000613fde601983612ede565b9150613fe982613fa8565b602082019050919050565b6000602082019050818103600083015261400d81613fd1565b9050919050565b7f4552433732314d657461646174613a2055524920717565727920666f72206e6f60008201527f6e6578697374656e7420746f6b656e0000000000000000000000000000000000602082015250565b6000614070602f83612ede565b915061407b82614014565b604082019050919050565b6000602082019050818103600083015261409f81614063565b9050919050565b600081905092915050565b60006140bc82612ed3565b6140c681856140a6565b93506140d6818560208601612eef565b80840191505092915050565b60006140ee82866140b1565b91506140fa82856140b1565b915061410682846140b1565b9150819050949350505050565b7f4f776e61626c653a206e6577206f776e657220697320746865207a65726f206160008201527f6464726573730000000000000000000000000000000000000000000000000000602082015250565b600061416f602683612ede565b915061417a82614113565b604082019050919050565b6000602082019050818103600083015261419e81614162565b9050919050565b7f4552433732313a206f70657261746f7220717565727920666f72206e6f6e657860008201527f697374656e7420746f6b656e0000000000000000000000000000000000000000602082015250565b6000614201602c83612ede565b915061420c826141a5565b604082019050919050565b60006020820190508181036000830152614230816141f4565b9050919050565b7f4552433732313a207472616e73666572206f6620746f6b656e2074686174206960008201527f73206e6f74206f776e0000000000000000000000000000000000000000000000602082015250565b6000614293602983612ede565b915061429e82614237565b604082019050919050565b600060208201905081810360008301526142c281614286565b9050919050565b7f4552433732313a207472616e7366657220746f20746865207a65726f2061646460008201527f7265737300000000000000000000000000000000000000000000000000000000602082015250565b6000614325602483612ede565b9150614330826142c9565b604082019050919050565b6000602082019050818103600083015261435481614318565b9050919050565b600061436682612f8e565b915061437183612f8e565b92508282101561438457614383613a1e565b5b828203905092915050565b600061439a82612f8e565b91506143a583612f8e565b9250817fffffffffffffffffffffffffffffffffffffffffffffffffffffffffffffffff04831182151516156143de576143dd613a1e565b5b828202905092915050565b7f4552433732313a207472616e7366657220746f206e6f6e20455243373231526560008201527f63656976657220696d706c656d656e7465720000000000000000000000000000602082015250565b6000614445603283612ede565b9150614450826143e9565b604082019050919050565b6000602082019050818103600083015261447481614438565b9050919050565b7f4e487b7100000000000000000000000000000000000000000000000000000000600052601260045260246000fd5b60006144b582612f8e565b91506144c083612f8e565b9250826144d0576144cf61447b565b5b828204905092915050565b600060ff82169050919050565b60006144f3826144db565b91506144fe836144db565b92508260ff0382111561451457614513613a1e565b5b828201905092915050565b600081519050919050565b600082825260208201905092915050565b60006145468261451f565b614550818561452a565b9350614560818560208601612eef565b61456981612f22565b840191505092915050565b60006080820190506145896000830187613023565b6145966020830186613023565b6145a360408301856130b9565b81810360608301526145b5818461453b565b905095945050505050565b6000815190506145cf81612e44565b92915050565b6000602082840312156145eb576145ea612e0e565b5b60006145f9848285016145c0565b91505092915050565b7f4e487b7100000000000000000000000000000000000000000000000000000000600052603160045260246000fd5b7f4552433732313a206d696e7420746f20746865207a65726f2061646472657373600082015250565b6000614667602083612ede565b915061467282614631565b602082019050919050565b600060208201905081810360008301526146968161465a565b9050919050565b7f4552433732313a20746f6b656e20616c7265616479206d696e74656400000000600082015250565b60006146d3601c83612ede565b91506146de8261469d565b602082019050919050565b60006020820190508181036000830152614702816146c6565b905091905056fea264697066735822122033698f0b94abba6d8963b8d5e8143206e52134f5a3eaa1b108b7b7604155fc2f64736f6c634300080a0033",
  "immutableReferences": {},
  "source": "// SPDX-License-Identifier: MIT\r\npragma solidity ^0.8.0;\r\n\r\nimport \"@openzeppelin/contracts/token/ERC721/ERC721.sol\";\r\nimport \"@openzeppelin/contracts/token/ERC721/extensions/ERC721Enumerable.sol\";\r\nimport \"@openzeppelin/contracts/access/Ownable.sol\";\r\nimport \"@openzeppelin/contracts/utils/math/SafeMath.sol\";\r\nimport \"@openzeppelin/contracts/utils/Counters.sol\";\r\nimport \"@openzeppelin/contracts/token/ERC20/IERC20.sol\";\r\n\r\ncontract Cryptovale is ERC721Enumerable, Ownable {\r\n    using SafeMath for uint256;\r\n    using Counters for Counters.Counter;\r\n\r\n    Counters.Counter private _tokenIdTracker;\r\n\r\n    uint256 public constant MAX_ELEMENTS_OWNER = 4444; //100 reserved for giveaways\r\n    uint256 public constant MAX_ELEMENTS_OTHER = 4344;\r\n    uint256 public constant PRICE = 4 * 10**16; // .04 eth\r\n    uint256 public constant MAX_BY_MINT = 5;\r\n    uint256 public constant MAX_PER_WALLET = 10;\r\n\r\n    bool public isSaleOpen = false;\r\n    bool public isPaused = false;\r\n\r\n    IERC20 public WETH;\r\n\r\n    address public teamWallet = 0xC07650C5B462626fd41e0cb4627FDFcD1E7C4904;\r\n\r\n    string public baseTokenURI;\r\n\r\n    event CreateGirl(uint256 indexed id);\r\n\r\n    constructor(string memory baseURI, address wethAddress)\r\n        ERC721(\"Cryptovale\", \"CRYPTOVALE\")\r\n    {\r\n        WETH = IERC20(wethAddress);\r\n        setBaseURI(baseURI);\r\n    }\r\n\r\n    modifier saleIsOpen() {\r\n        if (_msgSender() != owner()) {\r\n            require(isSaleOpen, \"Sale is not open\");\r\n        }\r\n        _;\r\n    }\r\n\r\n    function _totalSupply() internal view returns (uint256) {\r\n        return _tokenIdTracker.current();\r\n    }\r\n\r\n    function totalMint() public view returns (uint256) {\r\n        return _totalSupply();\r\n    }\r\n\r\n    function mint(\r\n        address _to,\r\n        uint256 _count\r\n    ) public saleIsOpen {\r\n        uint256 total = _totalSupply();\r\n       if(_msgSender()!=owner()){\r\n            require(total + _count <= MAX_ELEMENTS_OTHER, \"Max limit\");\r\n            require(!isPaused, \"Minting is paused.\");\r\n            require(_count <= MAX_BY_MINT, \"Exceeds number\");\r\n            require(balanceOf(_msgSender()) + _count <= MAX_PER_WALLET, \"Exceeds max allowed per wallet\");\r\n            require(\r\n                WETH.balanceOf(msg.sender) >= price(_count),\r\n                \"Insufficient balance\"\r\n            );\r\n            WETH.transferFrom(msg.sender, teamWallet, price(_count));\r\n       }else{\r\n           require(total + _count <= MAX_ELEMENTS_OWNER, \"Max limit\");\r\n       }\r\n\r\n        for (uint256 i = 0; i < _count; i++) {\r\n            _mintAnElement(_to);\r\n        }\r\n    }\r\n\r\n    function _mintAnElement(address _to) private {\r\n        uint256 id = _totalSupply();\r\n        _tokenIdTracker.increment();\r\n        _safeMint(_to, id);\r\n        emit CreateGirl(id);\r\n    }\r\n\r\n    function pauseSale() external onlyOwner {\r\n        isPaused = true;\r\n    }\r\n\r\n    function resumeSale() external onlyOwner {\r\n        isPaused = false;\r\n    }\r\n\r\n    function setBaseURI(string memory baseURI) public onlyOwner {\r\n        baseTokenURI = baseURI;\r\n    }\r\n\r\n    function setSaleOpen() external onlyOwner {\r\n        isSaleOpen = true;\r\n    }\r\n\r\n    function setTeamWallet(address wallet) external onlyOwner {\r\n        teamWallet = wallet;\r\n    }\r\n\r\n    function price(uint256 _count) public pure returns (uint256) {\r\n        return PRICE.mul(_count);\r\n    }\r\n\r\n    function _baseURI() internal view virtual override returns (string memory) {\r\n        return baseTokenURI;\r\n    }\r\n\r\n    function tokenURI(uint256 tokenId)\r\n        public\r\n        view\r\n        virtual\r\n        override\r\n        returns (string memory)\r\n    {\r\n        require(\r\n            _exists(tokenId),\r\n            \"ERC721Metadata: URI query for nonexistent token\"\r\n        );\r\n\r\n        uint256 metaId = tokenId +1;\r\n        string memory uriSuffix = \".json\";\r\n        string memory currentBaseURI = _baseURI();\r\n        return\r\n            bytes(currentBaseURI).length > 0\r\n                ? string(abi.encodePacked(currentBaseURI,uint2str(metaId), uriSuffix ))\r\n                : \"\";\r\n    }\r\n\r\n    function walletOfOwner(address _owner)\r\n        external\r\n        view\r\n        returns (uint256[] memory)\r\n    {\r\n        uint256 tokenCount = balanceOf(_owner);\r\n\r\n        uint256[] memory tokensId = new uint256[](tokenCount);\r\n        for (uint256 i = 0; i < tokenCount; i++) {\r\n            tokensId[i] = tokenOfOwnerByIndex(_owner, i);\r\n        }\r\n\r\n        return tokensId;\r\n    }\r\n\r\n    function uint2str(uint _i) internal pure returns (string memory _uintAsString) {\r\n        if (_i == 0) {\r\n            return \"0\";\r\n        }\r\n        uint j = _i;\r\n        uint len;\r\n        while (j != 0) {\r\n            len++;\r\n            j /= 10;\r\n        }\r\n        bytes memory bstr = new bytes(len);\r\n        uint k = len;\r\n        while (_i != 0) {\r\n            k = k-1;\r\n            uint8 temp = (48 + uint8(_i - _i / 10 * 10));\r\n            bytes1 b1 = bytes1(temp);\r\n            bstr[k] = b1;\r\n            _i /= 10;\r\n        }\r\n        return string(bstr);\r\n    }\r\n\r\n}\r\n",
  "sourcePath": "C:\\git\\freelance\\tokens\\contracts\\Cryptovale.sol",
  "compiler": {
    "name": "solc",
    "version": "0.8.10+commit.fc410830.Emscripten.clang"
  },
  "schemaVersion": "3.4.3",
  "updatedAt": "2021-12-24T19:31:08.214Z",
  "networkType": "ethereum",
  "devdoc": {
    "kind": "dev",
    "methods": {
      "approve(address,uint256)": {
        "details": "See {IERC721-approve}."
      },
      "balanceOf(address)": {
        "details": "See {IERC721-balanceOf}."
      },
      "getApproved(uint256)": {
        "details": "See {IERC721-getApproved}."
      },
      "isApprovedForAll(address,address)": {
        "details": "See {IERC721-isApprovedForAll}."
      },
      "name()": {
        "details": "See {IERC721Metadata-name}."
      },
      "owner()": {
        "details": "Returns the address of the current owner."
      },
      "ownerOf(uint256)": {
        "details": "See {IERC721-ownerOf}."
      },
      "renounceOwnership()": {
        "details": "Leaves the contract without owner. It will not be possible to call `onlyOwner` functions anymore. Can only be called by the current owner. NOTE: Renouncing ownership will leave the contract without an owner, thereby removing any functionality that is only available to the owner."
      },
      "safeTransferFrom(address,address,uint256)": {
        "details": "See {IERC721-safeTransferFrom}."
      },
      "safeTransferFrom(address,address,uint256,bytes)": {
        "details": "See {IERC721-safeTransferFrom}."
      },
      "setApprovalForAll(address,bool)": {
        "details": "See {IERC721-setApprovalForAll}."
      },
      "supportsInterface(bytes4)": {
        "details": "See {IERC165-supportsInterface}."
      },
      "symbol()": {
        "details": "See {IERC721Metadata-symbol}."
      },
      "tokenByIndex(uint256)": {
        "details": "See {IERC721Enumerable-tokenByIndex}."
      },
      "tokenOfOwnerByIndex(address,uint256)": {
        "details": "See {IERC721Enumerable-tokenOfOwnerByIndex}."
      },
      "tokenURI(uint256)": {
        "details": "See {IERC721Metadata-tokenURI}."
      },
      "totalSupply()": {
        "details": "See {IERC721Enumerable-totalSupply}."
      },
      "transferFrom(address,address,uint256)": {
        "details": "See {IERC721-transferFrom}."
      },
      "transferOwnership(address)": {
        "details": "Transfers ownership of the contract to a new account (`newOwner`). Can only be called by the current owner."
      }
    },
    "version": 1
  },
  "userdoc": {
    "kind": "user",
    "methods": {},
    "version": 1
  }
}